{
  "_format": "hh-sol-artifact-1",
  "contractName": "ERC721PresetMinterPauserAutoId",
  "sourceName": "contracts/erc-token/ERC721PresetMinterPauserAutoId.sol",
  "abi": [
    {
      "inputs": [
        {
          "internalType": "string",
          "name": "name",
          "type": "string"
        },
        {
          "internalType": "string",
          "name": "symbol",
          "type": "string"
        },
        {
          "internalType": "string",
          "name": "baseTokenURI",
          "type": "string"
        }
      ],
      "stateMutability": "nonpayable",
      "type": "constructor"
    },
    {
      "anonymous": false,
      "inputs": [
        {
          "indexed": true,
          "internalType": "address",
          "name": "owner",
          "type": "address"
        },
        {
          "indexed": true,
          "internalType": "address",
          "name": "approved",
          "type": "address"
        },
        {
          "indexed": true,
          "internalType": "uint256",
          "name": "tokenId",
          "type": "uint256"
        }
      ],
      "name": "Approval",
      "type": "event"
    },
    {
      "anonymous": false,
      "inputs": [
        {
          "indexed": true,
          "internalType": "address",
          "name": "owner",
          "type": "address"
        },
        {
          "indexed": true,
          "internalType": "address",
          "name": "operator",
          "type": "address"
        },
        {
          "indexed": false,
          "internalType": "bool",
          "name": "approved",
          "type": "bool"
        }
      ],
      "name": "ApprovalForAll",
      "type": "event"
    },
    {
      "anonymous": false,
      "inputs": [
        {
          "indexed": false,
          "internalType": "address",
          "name": "account",
          "type": "address"
        }
      ],
      "name": "Paused",
      "type": "event"
    },
    {
      "anonymous": false,
      "inputs": [
        {
          "indexed": true,
          "internalType": "bytes32",
          "name": "role",
          "type": "bytes32"
        },
        {
          "indexed": true,
          "internalType": "bytes32",
          "name": "previousAdminRole",
          "type": "bytes32"
        },
        {
          "indexed": true,
          "internalType": "bytes32",
          "name": "newAdminRole",
          "type": "bytes32"
        }
      ],
      "name": "RoleAdminChanged",
      "type": "event"
    },
    {
      "anonymous": false,
      "inputs": [
        {
          "indexed": true,
          "internalType": "bytes32",
          "name": "role",
          "type": "bytes32"
        },
        {
          "indexed": true,
          "internalType": "address",
          "name": "account",
          "type": "address"
        },
        {
          "indexed": true,
          "internalType": "address",
          "name": "sender",
          "type": "address"
        }
      ],
      "name": "RoleGranted",
      "type": "event"
    },
    {
      "anonymous": false,
      "inputs": [
        {
          "indexed": true,
          "internalType": "bytes32",
          "name": "role",
          "type": "bytes32"
        },
        {
          "indexed": true,
          "internalType": "address",
          "name": "account",
          "type": "address"
        },
        {
          "indexed": true,
          "internalType": "address",
          "name": "sender",
          "type": "address"
        }
      ],
      "name": "RoleRevoked",
      "type": "event"
    },
    {
      "anonymous": false,
      "inputs": [
        {
          "indexed": true,
          "internalType": "address",
          "name": "from",
          "type": "address"
        },
        {
          "indexed": true,
          "internalType": "address",
          "name": "to",
          "type": "address"
        },
        {
          "indexed": true,
          "internalType": "uint256",
          "name": "tokenId",
          "type": "uint256"
        }
      ],
      "name": "Transfer",
      "type": "event"
    },
    {
      "anonymous": false,
      "inputs": [
        {
          "indexed": false,
          "internalType": "address",
          "name": "account",
          "type": "address"
        }
      ],
      "name": "Unpaused",
      "type": "event"
    },
    {
      "inputs": [],
      "name": "DEFAULT_ADMIN_ROLE",
      "outputs": [
        {
          "internalType": "bytes32",
          "name": "",
          "type": "bytes32"
        }
      ],
      "stateMutability": "view",
      "type": "function"
    },
    {
      "inputs": [],
      "name": "MINTER_ROLE",
      "outputs": [
        {
          "internalType": "bytes32",
          "name": "",
          "type": "bytes32"
        }
      ],
      "stateMutability": "view",
      "type": "function"
    },
    {
      "inputs": [],
      "name": "PAUSER_ROLE",
      "outputs": [
        {
          "internalType": "bytes32",
          "name": "",
          "type": "bytes32"
        }
      ],
      "stateMutability": "view",
      "type": "function"
    },
    {
      "inputs": [
        {
          "internalType": "address",
          "name": "to",
          "type": "address"
        },
        {
          "internalType": "uint256",
          "name": "tokenId",
          "type": "uint256"
        }
      ],
      "name": "approve",
      "outputs": [],
      "stateMutability": "nonpayable",
      "type": "function"
    },
    {
      "inputs": [
        {
          "internalType": "address",
          "name": "owner",
          "type": "address"
        }
      ],
      "name": "balanceOf",
      "outputs": [
        {
          "internalType": "uint256",
          "name": "",
          "type": "uint256"
        }
      ],
      "stateMutability": "view",
      "type": "function"
    },
    {
      "inputs": [
        {
          "internalType": "uint256",
          "name": "tokenId",
          "type": "uint256"
        }
      ],
      "name": "burn",
      "outputs": [],
      "stateMutability": "nonpayable",
      "type": "function"
    },
    {
      "inputs": [
        {
          "internalType": "uint256",
          "name": "tokenId",
          "type": "uint256"
        }
      ],
      "name": "getApproved",
      "outputs": [
        {
          "internalType": "address",
          "name": "",
          "type": "address"
        }
      ],
      "stateMutability": "view",
      "type": "function"
    },
    {
      "inputs": [
        {
          "internalType": "bytes32",
          "name": "role",
          "type": "bytes32"
        }
      ],
      "name": "getRoleAdmin",
      "outputs": [
        {
          "internalType": "bytes32",
          "name": "",
          "type": "bytes32"
        }
      ],
      "stateMutability": "view",
      "type": "function"
    },
    {
      "inputs": [
        {
          "internalType": "bytes32",
          "name": "role",
          "type": "bytes32"
        },
        {
          "internalType": "uint256",
          "name": "index",
          "type": "uint256"
        }
      ],
      "name": "getRoleMember",
      "outputs": [
        {
          "internalType": "address",
          "name": "",
          "type": "address"
        }
      ],
      "stateMutability": "view",
      "type": "function"
    },
    {
      "inputs": [
        {
          "internalType": "bytes32",
          "name": "role",
          "type": "bytes32"
        }
      ],
      "name": "getRoleMemberCount",
      "outputs": [
        {
          "internalType": "uint256",
          "name": "",
          "type": "uint256"
        }
      ],
      "stateMutability": "view",
      "type": "function"
    },
    {
      "inputs": [
        {
          "internalType": "bytes32",
          "name": "role",
          "type": "bytes32"
        },
        {
          "internalType": "address",
          "name": "account",
          "type": "address"
        }
      ],
      "name": "grantRole",
      "outputs": [],
      "stateMutability": "nonpayable",
      "type": "function"
    },
    {
      "inputs": [
        {
          "internalType": "bytes32",
          "name": "role",
          "type": "bytes32"
        },
        {
          "internalType": "address",
          "name": "account",
          "type": "address"
        }
      ],
      "name": "hasRole",
      "outputs": [
        {
          "internalType": "bool",
          "name": "",
          "type": "bool"
        }
      ],
      "stateMutability": "view",
      "type": "function"
    },
    {
      "inputs": [
        {
          "internalType": "address",
          "name": "owner",
          "type": "address"
        },
        {
          "internalType": "address",
          "name": "operator",
          "type": "address"
        }
      ],
      "name": "isApprovedForAll",
      "outputs": [
        {
          "internalType": "bool",
          "name": "",
          "type": "bool"
        }
      ],
      "stateMutability": "view",
      "type": "function"
    },
    {
      "inputs": [
        {
          "internalType": "address",
          "name": "to",
          "type": "address"
        }
      ],
      "name": "mint",
      "outputs": [],
      "stateMutability": "nonpayable",
      "type": "function"
    },
    {
      "inputs": [
        {
          "internalType": "address",
          "name": "to",
          "type": "address"
        },
        {
          "internalType": "string",
          "name": "tokenURI",
          "type": "string"
        }
      ],
      "name": "mintWithTokenURI",
      "outputs": [
        {
          "internalType": "bool",
          "name": "",
          "type": "bool"
        }
      ],
      "stateMutability": "nonpayable",
      "type": "function"
    },
    {
      "inputs": [],
      "name": "name",
      "outputs": [
        {
          "internalType": "string",
          "name": "",
          "type": "string"
        }
      ],
      "stateMutability": "view",
      "type": "function"
    },
    {
      "inputs": [
        {
          "internalType": "uint256",
          "name": "tokenId",
          "type": "uint256"
        }
      ],
      "name": "ownerOf",
      "outputs": [
        {
          "internalType": "address",
          "name": "",
          "type": "address"
        }
      ],
      "stateMutability": "view",
      "type": "function"
    },
    {
      "inputs": [],
      "name": "pause",
      "outputs": [],
      "stateMutability": "nonpayable",
      "type": "function"
    },
    {
      "inputs": [],
      "name": "paused",
      "outputs": [
        {
          "internalType": "bool",
          "name": "",
          "type": "bool"
        }
      ],
      "stateMutability": "view",
      "type": "function"
    },
    {
      "inputs": [
        {
          "internalType": "bytes32",
          "name": "role",
          "type": "bytes32"
        },
        {
          "internalType": "address",
          "name": "account",
          "type": "address"
        }
      ],
      "name": "renounceRole",
      "outputs": [],
      "stateMutability": "nonpayable",
      "type": "function"
    },
    {
      "inputs": [
        {
          "internalType": "bytes32",
          "name": "role",
          "type": "bytes32"
        },
        {
          "internalType": "address",
          "name": "account",
          "type": "address"
        }
      ],
      "name": "revokeRole",
      "outputs": [],
      "stateMutability": "nonpayable",
      "type": "function"
    },
    {
      "inputs": [
        {
          "internalType": "address",
          "name": "from",
          "type": "address"
        },
        {
          "internalType": "address",
          "name": "to",
          "type": "address"
        },
        {
          "internalType": "uint256",
          "name": "tokenId",
          "type": "uint256"
        }
      ],
      "name": "safeTransferFrom",
      "outputs": [],
      "stateMutability": "nonpayable",
      "type": "function"
    },
    {
      "inputs": [
        {
          "internalType": "address",
          "name": "from",
          "type": "address"
        },
        {
          "internalType": "address",
          "name": "to",
          "type": "address"
        },
        {
          "internalType": "uint256",
          "name": "tokenId",
          "type": "uint256"
        },
        {
          "internalType": "bytes",
          "name": "_data",
          "type": "bytes"
        }
      ],
      "name": "safeTransferFrom",
      "outputs": [],
      "stateMutability": "nonpayable",
      "type": "function"
    },
    {
      "inputs": [
        {
          "internalType": "address",
          "name": "operator",
          "type": "address"
        },
        {
          "internalType": "bool",
          "name": "approved",
          "type": "bool"
        }
      ],
      "name": "setApprovalForAll",
      "outputs": [],
      "stateMutability": "nonpayable",
      "type": "function"
    },
    {
      "inputs": [
        {
          "internalType": "bytes4",
          "name": "interfaceId",
          "type": "bytes4"
        }
      ],
      "name": "supportsInterface",
      "outputs": [
        {
          "internalType": "bool",
          "name": "",
          "type": "bool"
        }
      ],
      "stateMutability": "view",
      "type": "function"
    },
    {
      "inputs": [],
      "name": "symbol",
      "outputs": [
        {
          "internalType": "string",
          "name": "",
          "type": "string"
        }
      ],
      "stateMutability": "view",
      "type": "function"
    },
    {
      "inputs": [
        {
          "internalType": "uint256",
          "name": "index",
          "type": "uint256"
        }
      ],
      "name": "tokenByIndex",
      "outputs": [
        {
          "internalType": "uint256",
          "name": "",
          "type": "uint256"
        }
      ],
      "stateMutability": "view",
      "type": "function"
    },
    {
      "inputs": [
        {
          "internalType": "address",
          "name": "owner",
          "type": "address"
        },
        {
          "internalType": "uint256",
          "name": "index",
          "type": "uint256"
        }
      ],
      "name": "tokenOfOwnerByIndex",
      "outputs": [
        {
          "internalType": "uint256",
          "name": "",
          "type": "uint256"
        }
      ],
      "stateMutability": "view",
      "type": "function"
    },
    {
      "inputs": [
        {
          "internalType": "uint256",
          "name": "tokenId",
          "type": "uint256"
        }
      ],
      "name": "tokenURI",
      "outputs": [
        {
          "internalType": "string",
          "name": "",
          "type": "string"
        }
      ],
      "stateMutability": "view",
      "type": "function"
    },
    {
      "inputs": [],
      "name": "totalSupply",
      "outputs": [
        {
          "internalType": "uint256",
          "name": "",
          "type": "uint256"
        }
      ],
      "stateMutability": "view",
      "type": "function"
    },
    {
      "inputs": [
        {
          "internalType": "address",
          "name": "from",
          "type": "address"
        },
        {
          "internalType": "address",
          "name": "to",
          "type": "address"
        },
        {
          "internalType": "uint256",
          "name": "tokenId",
          "type": "uint256"
        }
      ],
      "name": "transferFrom",
      "outputs": [],
      "stateMutability": "nonpayable",
      "type": "function"
    },
    {
      "inputs": [],
      "name": "unpause",
      "outputs": [],
      "stateMutability": "nonpayable",
      "type": "function"
    }
  ],
  "bytecode": "0x60806040523480156200001157600080fd5b506040516200564438038062005644833981810160405281019062000037919062000508565b8282816002908051906020019062000051929190620003e6565b5080600390805190602001906200006a929190620003e6565b5050506000600c60006101000a81548160ff02191690831515021790555080600e9080519060200190620000a0929190620003e6565b50620000c56000801b620000b96200015060201b60201c565b6200015860201b60201c565b620001067f9f2df0fed2c77648de5860a4cc508cd0818c85b8b8a1ab4ceeef8d981c8956a6620000fa6200015060201b60201c565b6200015860201b60201c565b620001477f65d7a28e3265b37a6474929f336521b332c1681b933f6cb9f3376673440d862a6200013b6200015060201b60201c565b6200015860201b60201c565b50505062000719565b600033905090565b6200016f8282620001a060201b6200142c1760201c565b6200019b8160016000858152602001908152602001600020620001b660201b6200143a1790919060201c565b505050565b620001b28282620001ee60201b60201c565b5050565b6000620001e6836000018373ffffffffffffffffffffffffffffffffffffffff1660001b620002df60201b60201c565b905092915050565b6200020082826200035960201b60201c565b620002db57600160008084815260200190815260200160002060000160008373ffffffffffffffffffffffffffffffffffffffff1673ffffffffffffffffffffffffffffffffffffffff16815260200190815260200160002060006101000a81548160ff021916908315150217905550620002806200015060201b60201c565b73ffffffffffffffffffffffffffffffffffffffff168173ffffffffffffffffffffffffffffffffffffffff16837f2f8788117e7eff1d82e926ec794901d17c78024a50270940304540a733656f0d60405160405180910390a45b5050565b6000620002f38383620003c360201b60201c565b6200034e57826000018290806001815401808255809150506001900390600052602060002001600090919091909150558260000180549050836001016000848152602001908152602001600020819055506001905062000353565b600090505b92915050565b600080600084815260200190815260200160002060000160008373ffffffffffffffffffffffffffffffffffffffff1673ffffffffffffffffffffffffffffffffffffffff16815260200190815260200160002060009054906101000a900460ff16905092915050565b600080836001016000848152602001908152602001600020541415905092915050565b828054620003f4906200063e565b90600052602060002090601f01602090048101928262000418576000855562000464565b82601f106200043357805160ff191683800117855562000464565b8280016001018555821562000464579182015b828111156200046357825182559160200191906001019062000446565b5b50905062000473919062000477565b5090565b5b808211156200049257600081600090555060010162000478565b5090565b6000620004ad620004a784620005d2565b620005a9565b905082815260208101848484011115620004c657600080fd5b620004d384828562000608565b509392505050565b600082601f830112620004ed57600080fd5b8151620004ff84826020860162000496565b91505092915050565b6000806000606084860312156200051e57600080fd5b600084015167ffffffffffffffff8111156200053957600080fd5b6200054786828701620004db565b935050602084015167ffffffffffffffff8111156200056557600080fd5b6200057386828701620004db565b925050604084015167ffffffffffffffff8111156200059157600080fd5b6200059f86828701620004db565b9150509250925092565b6000620005b5620005c8565b9050620005c3828262000674565b919050565b6000604051905090565b600067ffffffffffffffff821115620005f057620005ef620006d9565b5b620005fb8262000708565b9050602081019050919050565b60005b83811015620006285780820151818401526020810190506200060b565b8381111562000638576000848401525b50505050565b600060028204905060018216806200065757607f821691505b602082108114156200066e576200066d620006aa565b5b50919050565b6200067f8262000708565b810181811067ffffffffffffffff82111715620006a157620006a0620006d9565b5b80604052505050565b7f4e487b7100000000000000000000000000000000000000000000000000000000600052602260045260246000fd5b7f4e487b7100000000000000000000000000000000000000000000000000000000600052604160045260246000fd5b6000601f19601f8301169050919050565b614f1b80620007296000396000f3fe608060405234801561001057600080fd5b50600436106101f05760003560e01c80636352211e1161010f578063a22cb465116100a2578063d539139311610071578063d5391393146105db578063d547741f146105f9578063e63ab1e914610615578063e985e9c514610633576101f0565b8063a22cb46514610543578063b88d4fde1461055f578063c87b56dd1461057b578063ca15c873146105ab576101f0565b80639010d07c116100de5780639010d07c146104a757806391d14854146104d757806395d89b4114610507578063a217fddf14610525576101f0565b80636352211e146104215780636a6278421461045157806370a082311461046d5780638456cb591461049d576101f0565b80632f745c591161018757806342966c681161015657806342966c681461038757806345c17782146103a35780634f6ccce7146103d35780635c975abb14610403576101f0565b80632f745c591461031557806336568abe146103455780633f4ba83a1461036157806342842e0e1461036b576101f0565b806318160ddd116101c357806318160ddd1461028f57806323b872dd146102ad578063248a9ca3146102c95780632f2ff15d146102f9576101f0565b806301ffc9a7146101f557806306fdde0314610225578063081812fc14610243578063095ea7b314610273575b600080fd5b61020f600480360381019061020a9190613853565b610663565b60405161021c9190613e69565b60405180910390f35b61022d610675565b60405161023a9190613e9f565b60405180910390f35b61025d600480360381019061025891906138a5565b610707565b60405161026a9190613e02565b60405180910390f35b61028d60048036038101906102889190613776565b61078c565b005b6102976108a4565b6040516102a49190614221565b60405180910390f35b6102c760048036038101906102c2919061361c565b6108b1565b005b6102e360048036038101906102de91906137b2565b610911565b6040516102f09190613e84565b60405180910390f35b610313600480360381019061030e91906137db565b610930565b005b61032f600480360381019061032a9190613776565b610964565b60405161033c9190614221565b60405180910390f35b61035f600480360381019061035a91906137db565b610a09565b005b610369610a3d565b005b6103856004803603810190610380919061361c565b610ab7565b005b6103a1600480360381019061039c91906138a5565b610ad7565b005b6103bd60048036038101906103b89190613722565b610b33565b6040516103ca9190613e69565b60405180910390f35b6103ed60048036038101906103e891906138a5565b610b6f565b6040516103fa9190614221565b60405180910390f35b61040b610c06565b6040516104189190613e69565b60405180910390f35b61043b600480360381019061043691906138a5565b610c1d565b6040516104489190613e02565b60405180910390f35b61046b600480360381019061046691906135b7565b610ccf565b005b610487600480360381019061048291906135b7565b610d5f565b6040516104949190614221565b60405180910390f35b6104a5610e17565b005b6104c160048036038101906104bc9190613817565b610e91565b6040516104ce9190613e02565b60405180910390f35b6104f160048036038101906104ec91906137db565b610ec0565b6040516104fe9190613e69565b60405180910390f35b61050f610f2a565b60405161051c9190613e9f565b60405180910390f35b61052d610fbc565b60405161053a9190613e84565b60405180910390f35b61055d600480360381019061055891906136e6565b610fc3565b005b6105796004803603810190610574919061366b565b611144565b005b610595600480360381019061059091906138a5565b6111a6565b6040516105a29190613e9f565b60405180910390f35b6105c560048036038101906105c091906137b2565b6112f8565b6040516105d29190614221565b60405180910390f35b6105e361131c565b6040516105f09190613e84565b60405180910390f35b610613600480360381019061060e91906137db565b611340565b005b61061d611374565b60405161062a9190613e84565b60405180910390f35b61064d600480360381019061064891906135e0565b611398565b60405161065a9190613e69565b60405180910390f35b600061066e8261146a565b9050919050565b60606002805461068490614505565b80601f01602080910402602001604051908101604052809291908181526020018280546106b090614505565b80156106fd5780601f106106d2576101008083540402835291602001916106fd565b820191906000526020600020905b8154815290600101906020018083116106e057829003601f168201915b5050505050905090565b6000610712826114e4565b610751576040517f08c379a0000000000000000000000000000000000000000000000000000000008152600401610748906140e1565b60405180910390fd5b6006600083815260200190815260200160002060009054906101000a900473ffffffffffffffffffffffffffffffffffffffff169050919050565b600061079782610c1d565b90508073ffffffffffffffffffffffffffffffffffffffff168373ffffffffffffffffffffffffffffffffffffffff161415610808576040517f08c379a00000000000000000000000000000000000000000000000000000000081526004016107ff90614141565b60405180910390fd5b8073ffffffffffffffffffffffffffffffffffffffff16610827611550565b73ffffffffffffffffffffffffffffffffffffffff161480610856575061085581610850611550565b611398565b5b610895576040517f08c379a000000000000000000000000000000000000000000000000000000000815260040161088c90614021565b60405180910390fd5b61089f8383611558565b505050565b6000600a80549050905090565b6108c26108bc611550565b82611611565b610901576040517f08c379a00000000000000000000000000000000000000000000000000000000081526004016108f890614161565b60405180910390fd5b61090c8383836116ef565b505050565b6000806000838152602001908152602001600020600101549050919050565b61093a828261194b565b61095f816001600085815260200190815260200160002061143a90919063ffffffff16565b505050565b600061096f83610d5f565b82106109b0576040517f08c379a00000000000000000000000000000000000000000000000000000000081526004016109a790613f21565b60405180910390fd5b600860008473ffffffffffffffffffffffffffffffffffffffff1673ffffffffffffffffffffffffffffffffffffffff168152602001908152602001600020600083815260200190815260200160002054905092915050565b610a138282611974565b610a3881600160008581526020019081526020016000206119f790919063ffffffff16565b505050565b610a6e7f65d7a28e3265b37a6474929f336521b332c1681b933f6cb9f3376673440d862a610a69611550565b610ec0565b610aad576040517f08c379a0000000000000000000000000000000000000000000000000000000008152600401610aa4906141e1565b60405180910390fd5b610ab5611a27565b565b610ad283838360405180602001604052806000815250611144565b505050565b610ae8610ae2611550565b82611611565b610b27576040517f08c379a0000000000000000000000000000000000000000000000000000000008152600401610b1e906141c1565b60405180910390fd5b610b3081611ac9565b50565b6000610b4883610b43600d611b1c565b611b2a565b610b5b610b55600d611b1c565b83611cf8565b610b65600d611d6c565b6001905092915050565b6000610b796108a4565b8210610bba576040517f08c379a0000000000000000000000000000000000000000000000000000000008152600401610bb190614181565b60405180910390fd5b600a8281548110610bf4577f4e487b7100000000000000000000000000000000000000000000000000000000600052603260045260246000fd5b90600052602060002001549050919050565b6000600c60009054906101000a900460ff16905090565b6000806004600084815260200190815260200160002060009054906101000a900473ffffffffffffffffffffffffffffffffffffffff169050600073ffffffffffffffffffffffffffffffffffffffff168173ffffffffffffffffffffffffffffffffffffffff161415610cc6576040517f08c379a0000000000000000000000000000000000000000000000000000000008152600401610cbd90614061565b60405180910390fd5b80915050919050565b610d007f9f2df0fed2c77648de5860a4cc508cd0818c85b8b8a1ab4ceeef8d981c8956a6610cfb611550565b610ec0565b610d3f576040517f08c379a0000000000000000000000000000000000000000000000000000000008152600401610d36906141a1565b60405180910390fd5b610d5281610d4d600d611b1c565b611b2a565b610d5c600d611d6c565b50565b60008073ffffffffffffffffffffffffffffffffffffffff168273ffffffffffffffffffffffffffffffffffffffff161415610dd0576040517f08c379a0000000000000000000000000000000000000000000000000000000008152600401610dc790614041565b60405180910390fd5b600560008373ffffffffffffffffffffffffffffffffffffffff1673ffffffffffffffffffffffffffffffffffffffff168152602001908152602001600020549050919050565b610e487f65d7a28e3265b37a6474929f336521b332c1681b933f6cb9f3376673440d862a610e43611550565b610ec0565b610e87576040517f08c379a0000000000000000000000000000000000000000000000000000000008152600401610e7e90613f81565b60405180910390fd5b610e8f611d82565b565b6000610eb88260016000868152602001908152602001600020611e2590919063ffffffff16565b905092915050565b600080600084815260200190815260200160002060000160008373ffffffffffffffffffffffffffffffffffffffff1673ffffffffffffffffffffffffffffffffffffffff16815260200190815260200160002060009054906101000a900460ff16905092915050565b606060038054610f3990614505565b80601f0160208091040260200160405190810160405280929190818152602001828054610f6590614505565b8015610fb25780601f10610f8757610100808354040283529160200191610fb2565b820191906000526020600020905b815481529060010190602001808311610f9557829003601f168201915b5050505050905090565b6000801b81565b610fcb611550565b73ffffffffffffffffffffffffffffffffffffffff168273ffffffffffffffffffffffffffffffffffffffff161415611039576040517f08c379a000000000000000000000000000000000000000000000000000000000815260040161103090613fc1565b60405180910390fd5b8060076000611046611550565b73ffffffffffffffffffffffffffffffffffffffff1673ffffffffffffffffffffffffffffffffffffffff16815260200190815260200160002060008473ffffffffffffffffffffffffffffffffffffffff1673ffffffffffffffffffffffffffffffffffffffff16815260200190815260200160002060006101000a81548160ff0219169083151502179055508173ffffffffffffffffffffffffffffffffffffffff166110f3611550565b73ffffffffffffffffffffffffffffffffffffffff167f17307eab39ab6107e8899845ad3d59bd9653f200f220920489ca2b5937696c31836040516111389190613e69565b60405180910390a35050565b61115561114f611550565b83611611565b611194576040517f08c379a000000000000000000000000000000000000000000000000000000000815260040161118b90614161565b60405180910390fd5b6111a084848484611e3f565b50505050565b60606111b1826114e4565b6111f0576040517f08c379a00000000000000000000000000000000000000000000000000000000081526004016111e7906140c1565b60405180910390fd5b6000600f6000848152602001908152602001600020805461121090614505565b80601f016020809104026020016040519081016040528092919081815260200182805461123c90614505565b80156112895780601f1061125e57610100808354040283529160200191611289565b820191906000526020600020905b81548152906001019060200180831161126c57829003601f168201915b50505050509050600061129a611e9b565b90506000815114156112b05781925050506112f3565b6000825111156112e55780826040516020016112cd929190613da4565b604051602081830303815290604052925050506112f3565b6112ee84611f2d565b925050505b919050565b600061131560016000848152602001908152602001600020611fd4565b9050919050565b7f9f2df0fed2c77648de5860a4cc508cd0818c85b8b8a1ab4ceeef8d981c8956a681565b61134a8282611fe9565b61136f81600160008581526020019081526020016000206119f790919063ffffffff16565b505050565b7f65d7a28e3265b37a6474929f336521b332c1681b933f6cb9f3376673440d862a81565b6000600760008473ffffffffffffffffffffffffffffffffffffffff1673ffffffffffffffffffffffffffffffffffffffff16815260200190815260200160002060008373ffffffffffffffffffffffffffffffffffffffff1673ffffffffffffffffffffffffffffffffffffffff16815260200190815260200160002060009054906101000a900460ff16905092915050565b6114368282612012565b5050565b6000611462836000018373ffffffffffffffffffffffffffffffffffffffff1660001b6120f2565b905092915050565b60007f780e9d63000000000000000000000000000000000000000000000000000000007bffffffffffffffffffffffffffffffffffffffffffffffffffffffff1916827bffffffffffffffffffffffffffffffffffffffffffffffffffffffff191614806114dd57506114dc82612162565b5b9050919050565b60008073ffffffffffffffffffffffffffffffffffffffff166004600084815260200190815260200160002060009054906101000a900473ffffffffffffffffffffffffffffffffffffffff1673ffffffffffffffffffffffffffffffffffffffff1614159050919050565b600033905090565b816006600083815260200190815260200160002060006101000a81548173ffffffffffffffffffffffffffffffffffffffff021916908373ffffffffffffffffffffffffffffffffffffffff160217905550808273ffffffffffffffffffffffffffffffffffffffff166115cb83610c1d565b73ffffffffffffffffffffffffffffffffffffffff167f8c5be1e5ebec7d5bd14f71427d1e84f3dd0314c0f7b2291e5b200ac8c7c3b92560405160405180910390a45050565b600061161c826114e4565b61165b576040517f08c379a000000000000000000000000000000000000000000000000000000000815260040161165290613fe1565b60405180910390fd5b600061166683610c1d565b90508073ffffffffffffffffffffffffffffffffffffffff168473ffffffffffffffffffffffffffffffffffffffff1614806116d557508373ffffffffffffffffffffffffffffffffffffffff166116bd84610707565b73ffffffffffffffffffffffffffffffffffffffff16145b806116e657506116e58185611398565b5b91505092915050565b8273ffffffffffffffffffffffffffffffffffffffff1661170f82610c1d565b73ffffffffffffffffffffffffffffffffffffffff1614611765576040517f08c379a000000000000000000000000000000000000000000000000000000000815260040161175c90614101565b60405180910390fd5b600073ffffffffffffffffffffffffffffffffffffffff168273ffffffffffffffffffffffffffffffffffffffff1614156117d5576040517f08c379a00000000000000000000000000000000000000000000000000000000081526004016117cc90613fa1565b60405180910390fd5b6117e0838383612244565b6117eb600082611558565b6001600560008573ffffffffffffffffffffffffffffffffffffffff1673ffffffffffffffffffffffffffffffffffffffff168152602001908152602001600020600082825461183b91906143e7565b925050819055506001600560008473ffffffffffffffffffffffffffffffffffffffff1673ffffffffffffffffffffffffffffffffffffffff16815260200190815260200160002060008282546118929190614306565b92505081905550816004600083815260200190815260200160002060006101000a81548173ffffffffffffffffffffffffffffffffffffffff021916908373ffffffffffffffffffffffffffffffffffffffff160217905550808273ffffffffffffffffffffffffffffffffffffffff168473ffffffffffffffffffffffffffffffffffffffff167fddf252ad1be2c89b69c2b068fc378daa952ba7f163c4a11628f55a4df523b3ef60405160405180910390a4505050565b61195482610911565b61196581611960611550565b612254565b61196f8383612012565b505050565b61197c611550565b73ffffffffffffffffffffffffffffffffffffffff168173ffffffffffffffffffffffffffffffffffffffff16146119e9576040517f08c379a00000000000000000000000000000000000000000000000000000000081526004016119e090614201565b60405180910390fd5b6119f382826122f1565b5050565b6000611a1f836000018373ffffffffffffffffffffffffffffffffffffffff1660001b6123d2565b905092915050565b611a2f610c06565b611a6e576040517f08c379a0000000000000000000000000000000000000000000000000000000008152600401611a6590613f01565b60405180910390fd5b6000600c60006101000a81548160ff0219169083151502179055507f5db9ee0a495bf2e6ff9c91a7834c1ba4fdd244a5e8aa4e537bd38aeae4b073aa611ab2611550565b604051611abf9190613e02565b60405180910390a1565b611ad281612558565b6000600f60008381526020019081526020016000208054611af290614505565b905014611b1957600f60008281526020019081526020016000206000611b189190613386565b5b50565b600081600001549050919050565b600073ffffffffffffffffffffffffffffffffffffffff168273ffffffffffffffffffffffffffffffffffffffff161415611b9a576040517f08c379a0000000000000000000000000000000000000000000000000000000008152600401611b91906140a1565b60405180910390fd5b611ba3816114e4565b15611be3576040517f08c379a0000000000000000000000000000000000000000000000000000000008152600401611bda90613f61565b60405180910390fd5b611bef60008383612244565b6001600560008473ffffffffffffffffffffffffffffffffffffffff1673ffffffffffffffffffffffffffffffffffffffff1681526020019081526020016000206000828254611c3f9190614306565b92505081905550816004600083815260200190815260200160002060006101000a81548173ffffffffffffffffffffffffffffffffffffffff021916908373ffffffffffffffffffffffffffffffffffffffff160217905550808273ffffffffffffffffffffffffffffffffffffffff16600073ffffffffffffffffffffffffffffffffffffffff167fddf252ad1be2c89b69c2b068fc378daa952ba7f163c4a11628f55a4df523b3ef60405160405180910390a45050565b611d01826114e4565b611d40576040517f08c379a0000000000000000000000000000000000000000000000000000000008152600401611d3790614081565b60405180910390fd5b80600f60008481526020019081526020016000209080519060200190611d679291906133c6565b505050565b6001816000016000828254019250508190555050565b611d8a610c06565b15611dca576040517f08c379a0000000000000000000000000000000000000000000000000000000008152600401611dc190614001565b60405180910390fd5b6001600c60006101000a81548160ff0219169083151502179055507f62e78cea01bee320cd4e420270b5ea74000d11b0c9f74754ebdbfc544b05a258611e0e611550565b604051611e1b9190613e02565b60405180910390a1565b6000611e348360000183612669565b60001c905092915050565b611e4a8484846116ef565b611e56848484846126ba565b611e95576040517f08c379a0000000000000000000000000000000000000000000000000000000008152600401611e8c90613f41565b60405180910390fd5b50505050565b6060600e8054611eaa90614505565b80601f0160208091040260200160405190810160405280929190818152602001828054611ed690614505565b8015611f235780601f10611ef857610100808354040283529160200191611f23565b820191906000526020600020905b815481529060010190602001808311611f0657829003601f168201915b5050505050905090565b6060611f38826114e4565b611f77576040517f08c379a0000000000000000000000000000000000000000000000000000000008152600401611f6e90614121565b60405180910390fd5b6000611f81611e9b565b90506000815111611fa15760405180602001604052806000815250611fcc565b80611fab84612851565b604051602001611fbc929190613da4565b6040516020818303038152906040525b915050919050565b6000611fe2826000016129fe565b9050919050565b611ff282610911565b61200381611ffe611550565b612254565b61200d83836122f1565b505050565b61201c8282610ec0565b6120ee57600160008084815260200190815260200160002060000160008373ffffffffffffffffffffffffffffffffffffffff1673ffffffffffffffffffffffffffffffffffffffff16815260200190815260200160002060006101000a81548160ff021916908315150217905550612093611550565b73ffffffffffffffffffffffffffffffffffffffff168173ffffffffffffffffffffffffffffffffffffffff16837f2f8788117e7eff1d82e926ec794901d17c78024a50270940304540a733656f0d60405160405180910390a45b5050565b60006120fe8383612a0f565b61215757826000018290806001815401808255809150506001900390600052602060002001600090919091909150558260000180549050836001016000848152602001908152602001600020819055506001905061215c565b600090505b92915050565b60007f80ac58cd000000000000000000000000000000000000000000000000000000007bffffffffffffffffffffffffffffffffffffffffffffffffffffffff1916827bffffffffffffffffffffffffffffffffffffffffffffffffffffffff1916148061222d57507f5b5e139f000000000000000000000000000000000000000000000000000000007bffffffffffffffffffffffffffffffffffffffffffffffffffffffff1916827bffffffffffffffffffffffffffffffffffffffffffffffffffffffff1916145b8061223d575061223c82612a32565b5b9050919050565b61224f838383612aac565b505050565b61225e8282610ec0565b6122ed576122838173ffffffffffffffffffffffffffffffffffffffff166014612b04565b6122918360001c6020612b04565b6040516020016122a2929190613dc8565b6040516020818303038152906040526040517f08c379a00000000000000000000000000000000000000000000000000000000081526004016122e49190613e9f565b60405180910390fd5b5050565b6122fb8282610ec0565b156123ce57600080600084815260200190815260200160002060000160008373ffffffffffffffffffffffffffffffffffffffff1673ffffffffffffffffffffffffffffffffffffffff16815260200190815260200160002060006101000a81548160ff021916908315150217905550612373611550565b73ffffffffffffffffffffffffffffffffffffffff168173ffffffffffffffffffffffffffffffffffffffff16837ff6391f5c32d9c69d2a47ea670b442974b53935d1edc7fd64eb21e047a839171b60405160405180910390a45b5050565b6000808360010160008481526020019081526020016000205490506000811461254c57600060018261240491906143e7565b905060006001866000018054905061241c91906143e7565b90508181146124d7576000866000018281548110612463577f4e487b7100000000000000000000000000000000000000000000000000000000600052603260045260246000fd5b90600052602060002001549050808760000184815481106124ad577f4e487b7100000000000000000000000000000000000000000000000000000000600052603260045260246000fd5b90600052602060002001819055508387600101600083815260200190815260200160002081905550505b85600001805480612511577f4e487b7100000000000000000000000000000000000000000000000000000000600052603160045260246000fd5b600190038181906000526020600020016000905590558560010160008681526020019081526020016000206000905560019350505050612552565b60009150505b92915050565b600061256382610c1d565b905061257181600084612244565b61257c600083611558565b6001600560008373ffffffffffffffffffffffffffffffffffffffff1673ffffffffffffffffffffffffffffffffffffffff16815260200190815260200160002060008282546125cc91906143e7565b925050819055506004600083815260200190815260200160002060006101000a81549073ffffffffffffffffffffffffffffffffffffffff021916905581600073ffffffffffffffffffffffffffffffffffffffff168273ffffffffffffffffffffffffffffffffffffffff167fddf252ad1be2c89b69c2b068fc378daa952ba7f163c4a11628f55a4df523b3ef60405160405180910390a45050565b60008260000182815481106126a7577f4e487b7100000000000000000000000000000000000000000000000000000000600052603260045260246000fd5b9060005260206000200154905092915050565b60006126db8473ffffffffffffffffffffffffffffffffffffffff16612dfe565b15612844578373ffffffffffffffffffffffffffffffffffffffff1663150b7a02612704611550565b8786866040518563ffffffff1660e01b81526004016127269493929190613e1d565b602060405180830381600087803b15801561274057600080fd5b505af192505050801561277157506040513d601f19601f8201168201806040525081019061276e919061387c565b60015b6127f4573d80600081146127a1576040519150601f19603f3d011682016040523d82523d6000602084013e6127a6565b606091505b506000815114156127ec576040517f08c379a00000000000000000000000000000000000000000000000000000000081526004016127e390613f41565b60405180910390fd5b805181602001fd5b63150b7a0260e01b7bffffffffffffffffffffffffffffffffffffffffffffffffffffffff1916817bffffffffffffffffffffffffffffffffffffffffffffffffffffffff191614915050612849565b600190505b949350505050565b60606000821415612899576040518060400160405280600181526020017f300000000000000000000000000000000000000000000000000000000000000081525090506129f9565b600082905060005b600082146128cb5780806128b490614568565b915050600a826128c4919061435c565b91506128a1565b60008167ffffffffffffffff81111561290d577f4e487b7100000000000000000000000000000000000000000000000000000000600052604160045260246000fd5b6040519080825280601f01601f19166020018201604052801561293f5781602001600182028036833780820191505090505b5090505b600085146129f25760018261295891906143e7565b9150600a8561296791906145b1565b60306129739190614306565b60f81b8183815181106129af577f4e487b7100000000000000000000000000000000000000000000000000000000600052603260045260246000fd5b60200101907effffffffffffffffffffffffffffffffffffffffffffffffffffffffffffff1916908160001a905350600a856129eb919061435c565b9450612943565b8093505050505b919050565b600081600001805490509050919050565b600080836001016000848152602001908152602001600020541415905092915050565b60007f5a05180f000000000000000000000000000000000000000000000000000000007bffffffffffffffffffffffffffffffffffffffffffffffffffffffff1916827bffffffffffffffffffffffffffffffffffffffffffffffffffffffff19161480612aa55750612aa482612e11565b5b9050919050565b612ab7838383612e8b565b612abf610c06565b15612aff576040517f08c379a0000000000000000000000000000000000000000000000000000000008152600401612af690613ee1565b60405180910390fd5b505050565b606060006002836002612b17919061438d565b612b219190614306565b67ffffffffffffffff811115612b60577f4e487b7100000000000000000000000000000000000000000000000000000000600052604160045260246000fd5b6040519080825280601f01601f191660200182016040528015612b925781602001600182028036833780820191505090505b5090507f300000000000000000000000000000000000000000000000000000000000000081600081518110612bf0577f4e487b7100000000000000000000000000000000000000000000000000000000600052603260045260246000fd5b60200101907effffffffffffffffffffffffffffffffffffffffffffffffffffffffffffff1916908160001a9053507f780000000000000000000000000000000000000000000000000000000000000081600181518110612c7a577f4e487b7100000000000000000000000000000000000000000000000000000000600052603260045260246000fd5b60200101907effffffffffffffffffffffffffffffffffffffffffffffffffffffffffffff1916908160001a90535060006001846002612cba919061438d565b612cc49190614306565b90505b6001811115612db0577f3031323334353637383961626364656600000000000000000000000000000000600f861660108110612d2c577f4e487b7100000000000000000000000000000000000000000000000000000000600052603260045260246000fd5b1a60f81b828281518110612d69577f4e487b7100000000000000000000000000000000000000000000000000000000600052603260045260246000fd5b60200101907effffffffffffffffffffffffffffffffffffffffffffffffffffffffffffff1916908160001a905350600485901c945080612da9906144db565b9050612cc7565b5060008414612df4576040517f08c379a0000000000000000000000000000000000000000000000000000000008152600401612deb90613ec1565b60405180910390fd5b8091505092915050565b600080823b905060008111915050919050565b60007f7965db0b000000000000000000000000000000000000000000000000000000007bffffffffffffffffffffffffffffffffffffffffffffffffffffffff1916827bffffffffffffffffffffffffffffffffffffffffffffffffffffffff19161480612e845750612e8382612f9f565b5b9050919050565b612e96838383613009565b600073ffffffffffffffffffffffffffffffffffffffff168373ffffffffffffffffffffffffffffffffffffffff161415612ed957612ed48161300e565b612f18565b8173ffffffffffffffffffffffffffffffffffffffff168373ffffffffffffffffffffffffffffffffffffffff1614612f1757612f168382613057565b5b5b600073ffffffffffffffffffffffffffffffffffffffff168273ffffffffffffffffffffffffffffffffffffffff161415612f5b57612f56816131c4565b612f9a565b8273ffffffffffffffffffffffffffffffffffffffff168273ffffffffffffffffffffffffffffffffffffffff1614612f9957612f988282613307565b5b5b505050565b60007f01ffc9a7000000000000000000000000000000000000000000000000000000007bffffffffffffffffffffffffffffffffffffffffffffffffffffffff1916827bffffffffffffffffffffffffffffffffffffffffffffffffffffffff1916149050919050565b505050565b600a80549050600b600083815260200190815260200160002081905550600a81908060018154018082558091505060019003906000526020600020016000909190919091505550565b6000600161306484610d5f565b61306e91906143e7565b9050600060096000848152602001908152602001600020549050818114613153576000600860008673ffffffffffffffffffffffffffffffffffffffff1673ffffffffffffffffffffffffffffffffffffffff168152602001908152602001600020600084815260200190815260200160002054905080600860008773ffffffffffffffffffffffffffffffffffffffff1673ffffffffffffffffffffffffffffffffffffffff168152602001908152602001600020600084815260200190815260200160002081905550816009600083815260200190815260200160002081905550505b6009600084815260200190815260200160002060009055600860008573ffffffffffffffffffffffffffffffffffffffff1673ffffffffffffffffffffffffffffffffffffffff16815260200190815260200160002060008381526020019081526020016000206000905550505050565b60006001600a805490506131d891906143e7565b90506000600b60008481526020019081526020016000205490506000600a838154811061322e577f4e487b7100000000000000000000000000000000000000000000000000000000600052603260045260246000fd5b9060005260206000200154905080600a8381548110613276577f4e487b7100000000000000000000000000000000000000000000000000000000600052603260045260246000fd5b906000526020600020018190555081600b600083815260200190815260200160002081905550600b600085815260200190815260200160002060009055600a8054806132eb577f4e487b7100000000000000000000000000000000000000000000000000000000600052603160045260246000fd5b6001900381819060005260206000200160009055905550505050565b600061331283610d5f565b905081600860008573ffffffffffffffffffffffffffffffffffffffff1673ffffffffffffffffffffffffffffffffffffffff168152602001908152602001600020600083815260200190815260200160002081905550806009600084815260200190815260200160002081905550505050565b50805461339290614505565b6000825580601f106133a457506133c3565b601f0160209004906000526020600020908101906133c2919061344c565b5b50565b8280546133d290614505565b90600052602060002090601f0160209004810192826133f4576000855561343b565b82601f1061340d57805160ff191683800117855561343b565b8280016001018555821561343b579182015b8281111561343a57825182559160200191906001019061341f565b5b509050613448919061344c565b5090565b5b8082111561346557600081600090555060010161344d565b5090565b600061347c61347784614261565b61423c565b90508281526020810184848401111561349457600080fd5b61349f848285614499565b509392505050565b60006134ba6134b584614292565b61423c565b9050828152602081018484840111156134d257600080fd5b6134dd848285614499565b509392505050565b6000813590506134f481614e72565b92915050565b60008135905061350981614e89565b92915050565b60008135905061351e81614ea0565b92915050565b60008135905061353381614eb7565b92915050565b60008151905061354881614eb7565b92915050565b600082601f83011261355f57600080fd5b813561356f848260208601613469565b91505092915050565b600082601f83011261358957600080fd5b81356135998482602086016134a7565b91505092915050565b6000813590506135b181614ece565b92915050565b6000602082840312156135c957600080fd5b60006135d7848285016134e5565b91505092915050565b600080604083850312156135f357600080fd5b6000613601858286016134e5565b9250506020613612858286016134e5565b9150509250929050565b60008060006060848603121561363157600080fd5b600061363f868287016134e5565b9350506020613650868287016134e5565b9250506040613661868287016135a2565b9150509250925092565b6000806000806080858703121561368157600080fd5b600061368f878288016134e5565b94505060206136a0878288016134e5565b93505060406136b1878288016135a2565b925050606085013567ffffffffffffffff8111156136ce57600080fd5b6136da8782880161354e565b91505092959194509250565b600080604083850312156136f957600080fd5b6000613707858286016134e5565b9250506020613718858286016134fa565b9150509250929050565b6000806040838503121561373557600080fd5b6000613743858286016134e5565b925050602083013567ffffffffffffffff81111561376057600080fd5b61376c85828601613578565b9150509250929050565b6000806040838503121561378957600080fd5b6000613797858286016134e5565b92505060206137a8858286016135a2565b9150509250929050565b6000602082840312156137c457600080fd5b60006137d28482850161350f565b91505092915050565b600080604083850312156137ee57600080fd5b60006137fc8582860161350f565b925050602061380d858286016134e5565b9150509250929050565b6000806040838503121561382a57600080fd5b60006138388582860161350f565b9250506020613849858286016135a2565b9150509250929050565b60006020828403121561386557600080fd5b600061387384828501613524565b91505092915050565b60006020828403121561388e57600080fd5b600061389c84828501613539565b91505092915050565b6000602082840312156138b757600080fd5b60006138c5848285016135a2565b91505092915050565b6138d78161441b565b82525050565b6138e68161442d565b82525050565b6138f581614439565b82525050565b6000613906826142c3565b61391081856142d9565b93506139208185602086016144a8565b6139298161469e565b840191505092915050565b600061393f826142ce565b61394981856142ea565b93506139598185602086016144a8565b6139628161469e565b840191505092915050565b6000613978826142ce565b61398281856142fb565b93506139928185602086016144a8565b80840191505092915050565b60006139ab6020836142ea565b91506139b6826146af565b602082019050919050565b60006139ce602b836142ea565b91506139d9826146d8565b604082019050919050565b60006139f16014836142ea565b91506139fc82614727565b602082019050919050565b6000613a14602b836142ea565b9150613a1f82614750565b604082019050919050565b6000613a376032836142ea565b9150613a428261479f565b604082019050919050565b6000613a5a601c836142ea565b9150613a65826147ee565b602082019050919050565b6000613a7d603e836142ea565b9150613a8882614817565b604082019050919050565b6000613aa06024836142ea565b9150613aab82614866565b604082019050919050565b6000613ac36019836142ea565b9150613ace826148b5565b602082019050919050565b6000613ae6602c836142ea565b9150613af1826148de565b604082019050919050565b6000613b096010836142ea565b9150613b148261492d565b602082019050919050565b6000613b2c6038836142ea565b9150613b3782614956565b604082019050919050565b6000613b4f602a836142ea565b9150613b5a826149a5565b604082019050919050565b6000613b726029836142ea565b9150613b7d826149f4565b604082019050919050565b6000613b95602e836142ea565b9150613ba082614a43565b604082019050919050565b6000613bb86020836142ea565b9150613bc382614a92565b602082019050919050565b6000613bdb6031836142ea565b9150613be682614abb565b604082019050919050565b6000613bfe602c836142ea565b9150613c0982614b0a565b604082019050919050565b6000613c216029836142ea565b9150613c2c82614b59565b604082019050919050565b6000613c44602f836142ea565b9150613c4f82614ba8565b604082019050919050565b6000613c676021836142ea565b9150613c7282614bf7565b604082019050919050565b6000613c8a6031836142ea565b9150613c9582614c46565b604082019050919050565b6000613cad602c836142ea565b9150613cb882614c95565b604082019050919050565b6000613cd06017836142fb565b9150613cdb82614ce4565b601782019050919050565b6000613cf3603d836142ea565b9150613cfe82614d0d565b604082019050919050565b6000613d166030836142ea565b9150613d2182614d5c565b604082019050919050565b6000613d396040836142ea565b9150613d4482614dab565b604082019050919050565b6000613d5c6011836142fb565b9150613d6782614dfa565b601182019050919050565b6000613d7f602f836142ea565b9150613d8a82614e23565b604082019050919050565b613d9e8161448f565b82525050565b6000613db0828561396d565b9150613dbc828461396d565b91508190509392505050565b6000613dd382613cc3565b9150613ddf828561396d565b9150613dea82613d4f565b9150613df6828461396d565b91508190509392505050565b6000602082019050613e1760008301846138ce565b92915050565b6000608082019050613e3260008301876138ce565b613e3f60208301866138ce565b613e4c6040830185613d95565b8181036060830152613e5e81846138fb565b905095945050505050565b6000602082019050613e7e60008301846138dd565b92915050565b6000602082019050613e9960008301846138ec565b92915050565b60006020820190508181036000830152613eb98184613934565b905092915050565b60006020820190508181036000830152613eda8161399e565b9050919050565b60006020820190508181036000830152613efa816139c1565b9050919050565b60006020820190508181036000830152613f1a816139e4565b9050919050565b60006020820190508181036000830152613f3a81613a07565b9050919050565b60006020820190508181036000830152613f5a81613a2a565b9050919050565b60006020820190508181036000830152613f7a81613a4d565b9050919050565b60006020820190508181036000830152613f9a81613a70565b9050919050565b60006020820190508181036000830152613fba81613a93565b9050919050565b60006020820190508181036000830152613fda81613ab6565b9050919050565b60006020820190508181036000830152613ffa81613ad9565b9050919050565b6000602082019050818103600083015261401a81613afc565b9050919050565b6000602082019050818103600083015261403a81613b1f565b9050919050565b6000602082019050818103600083015261405a81613b42565b9050919050565b6000602082019050818103600083015261407a81613b65565b9050919050565b6000602082019050818103600083015261409a81613b88565b9050919050565b600060208201905081810360008301526140ba81613bab565b9050919050565b600060208201905081810360008301526140da81613bce565b9050919050565b600060208201905081810360008301526140fa81613bf1565b9050919050565b6000602082019050818103600083015261411a81613c14565b9050919050565b6000602082019050818103600083015261413a81613c37565b9050919050565b6000602082019050818103600083015261415a81613c5a565b9050919050565b6000602082019050818103600083015261417a81613c7d565b9050919050565b6000602082019050818103600083015261419a81613ca0565b9050919050565b600060208201905081810360008301526141ba81613ce6565b9050919050565b600060208201905081810360008301526141da81613d09565b9050919050565b600060208201905081810360008301526141fa81613d2c565b9050919050565b6000602082019050818103600083015261421a81613d72565b9050919050565b60006020820190506142366000830184613d95565b92915050565b6000614246614257565b90506142528282614537565b919050565b6000604051905090565b600067ffffffffffffffff82111561427c5761427b61466f565b5b6142858261469e565b9050602081019050919050565b600067ffffffffffffffff8211156142ad576142ac61466f565b5b6142b68261469e565b9050602081019050919050565b600081519050919050565b600081519050919050565b600082825260208201905092915050565b600082825260208201905092915050565b600081905092915050565b60006143118261448f565b915061431c8361448f565b9250827fffffffffffffffffffffffffffffffffffffffffffffffffffffffffffffffff03821115614351576143506145e2565b5b828201905092915050565b60006143678261448f565b91506143728361448f565b92508261438257614381614611565b5b828204905092915050565b60006143988261448f565b91506143a38361448f565b9250817fffffffffffffffffffffffffffffffffffffffffffffffffffffffffffffffff04831182151516156143dc576143db6145e2565b5b828202905092915050565b60006143f28261448f565b91506143fd8361448f565b9250828210156144105761440f6145e2565b5b828203905092915050565b60006144268261446f565b9050919050565b60008115159050919050565b6000819050919050565b60007fffffffff0000000000000000000000000000000000000000000000000000000082169050919050565b600073ffffffffffffffffffffffffffffffffffffffff82169050919050565b6000819050919050565b82818337600083830152505050565b60005b838110156144c65780820151818401526020810190506144ab565b838111156144d5576000848401525b50505050565b60006144e68261448f565b915060008214156144fa576144f96145e2565b5b600182039050919050565b6000600282049050600182168061451d57607f821691505b6020821081141561453157614530614640565b5b50919050565b6145408261469e565b810181811067ffffffffffffffff8211171561455f5761455e61466f565b5b80604052505050565b60006145738261448f565b91507fffffffffffffffffffffffffffffffffffffffffffffffffffffffffffffffff8214156145a6576145a56145e2565b5b600182019050919050565b60006145bc8261448f565b91506145c78361448f565b9250826145d7576145d6614611565b5b828206905092915050565b7f4e487b7100000000000000000000000000000000000000000000000000000000600052601160045260246000fd5b7f4e487b7100000000000000000000000000000000000000000000000000000000600052601260045260246000fd5b7f4e487b7100000000000000000000000000000000000000000000000000000000600052602260045260246000fd5b7f4e487b7100000000000000000000000000000000000000000000000000000000600052604160045260246000fd5b6000601f19601f8301169050919050565b7f537472696e67733a20686578206c656e67746820696e73756666696369656e74600082015250565b7f4552433732315061757361626c653a20746f6b656e207472616e73666572207760008201527f68696c6520706175736564000000000000000000000000000000000000000000602082015250565b7f5061757361626c653a206e6f7420706175736564000000000000000000000000600082015250565b7f455243373231456e756d657261626c653a206f776e657220696e646578206f7560008201527f74206f6620626f756e6473000000000000000000000000000000000000000000602082015250565b7f4552433732313a207472616e7366657220746f206e6f6e20455243373231526560008201527f63656976657220696d706c656d656e7465720000000000000000000000000000602082015250565b7f4552433732313a20746f6b656e20616c7265616479206d696e74656400000000600082015250565b7f4552433732315072657365744d696e7465725061757365724175746f49643a2060008201527f6d75737420686176652070617573657220726f6c6520746f2070617573650000602082015250565b7f4552433732313a207472616e7366657220746f20746865207a65726f2061646460008201527f7265737300000000000000000000000000000000000000000000000000000000602082015250565b7f4552433732313a20617070726f766520746f2063616c6c657200000000000000600082015250565b7f4552433732313a206f70657261746f7220717565727920666f72206e6f6e657860008201527f697374656e7420746f6b656e0000000000000000000000000000000000000000602082015250565b7f5061757361626c653a2070617573656400000000000000000000000000000000600082015250565b7f4552433732313a20617070726f76652063616c6c6572206973206e6f74206f7760008201527f6e6572206e6f7220617070726f76656420666f7220616c6c0000000000000000602082015250565b7f4552433732313a2062616c616e636520717565727920666f7220746865207a6560008201527f726f206164647265737300000000000000000000000000000000000000000000602082015250565b7f4552433732313a206f776e657220717565727920666f72206e6f6e657869737460008201527f656e7420746f6b656e0000000000000000000000000000000000000000000000602082015250565b7f45524337323155524953746f726167653a2055524920736574206f66206e6f6e60008201527f6578697374656e7420746f6b656e000000000000000000000000000000000000602082015250565b7f4552433732313a206d696e7420746f20746865207a65726f2061646472657373600082015250565b7f45524337323155524953746f726167653a2055524920717565727920666f722060008201527f6e6f6e6578697374656e7420746f6b656e000000000000000000000000000000602082015250565b7f4552433732313a20617070726f76656420717565727920666f72206e6f6e657860008201527f697374656e7420746f6b656e0000000000000000000000000000000000000000602082015250565b7f4552433732313a207472616e73666572206f6620746f6b656e2074686174206960008201527f73206e6f74206f776e0000000000000000000000000000000000000000000000602082015250565b7f4552433732314d657461646174613a2055524920717565727920666f72206e6f60008201527f6e6578697374656e7420746f6b656e0000000000000000000000000000000000602082015250565b7f4552433732313a20617070726f76616c20746f2063757272656e74206f776e6560008201527f7200000000000000000000000000000000000000000000000000000000000000602082015250565b7f4552433732313a207472616e736665722063616c6c6572206973206e6f74206f60008201527f776e6572206e6f7220617070726f766564000000000000000000000000000000602082015250565b7f455243373231456e756d657261626c653a20676c6f62616c20696e646578206f60008201527f7574206f6620626f756e64730000000000000000000000000000000000000000602082015250565b7f416363657373436f6e74726f6c3a206163636f756e7420000000000000000000600082015250565b7f4552433732315072657365744d696e7465725061757365724175746f49643a2060008201527f6d7573742068617665206d696e74657220726f6c6520746f206d696e74000000602082015250565b7f4552433732314275726e61626c653a2063616c6c6572206973206e6f74206f7760008201527f6e6572206e6f7220617070726f76656400000000000000000000000000000000602082015250565b7f4552433732315072657365744d696e7465725061757365724175746f49643a2060008201527f6d75737420686176652070617573657220726f6c6520746f20756e7061757365602082015250565b7f206973206d697373696e6720726f6c6520000000000000000000000000000000600082015250565b7f416363657373436f6e74726f6c3a2063616e206f6e6c792072656e6f756e636560008201527f20726f6c657320666f722073656c660000000000000000000000000000000000602082015250565b614e7b8161441b565b8114614e8657600080fd5b50565b614e928161442d565b8114614e9d57600080fd5b50565b614ea981614439565b8114614eb457600080fd5b50565b614ec081614443565b8114614ecb57600080fd5b50565b614ed78161448f565b8114614ee257600080fd5b5056fea26469706673582212205e6a3aca32ee763e3434627043534aa6fd970872a4c504587a9f681d3442318264736f6c63430008030033",
  "linkReferences": {},
  "deployedLinkReferences": {}
}