{
  "_format": "hh-sol-artifact-1",
  "contractName": "AuctionFixedPrice",
  "sourceName": "contracts/AuctionFixedPrice.sol",
  "abi": [
    {
      "inputs": [
        {
          "internalType": "address",
          "name": "_nft",
          "type": "address"
        },
        {
          "internalType": "uint256",
          "name": "_tokenId",
          "type": "uint256"
        }
      ],
      "name": "cancelAution",
      "outputs": [],
      "stateMutability": "nonpayable",
      "type": "function"
    },
    {
      "inputs": [
        {
          "internalType": "address",
          "name": "_nft",
          "type": "address"
        },
        {
          "internalType": "uint256",
          "name": "_tokenId",
          "type": "uint256"
        },
        {
          "internalType": "address",
          "name": "_tokenAddress",
          "type": "address"
        },
        {
          "internalType": "uint256",
          "name": "_price",
          "type": "uint256"
        },
        {
          "internalType": "uint256",
          "name": "_duration",
          "type": "uint256"
        }
      ],
      "name": "createTokenAuction",
      "outputs": [],
      "stateMutability": "nonpayable",
      "type": "function"
    },
    {
      "inputs": [
        {
          "internalType": "address",
          "name": "_nft",
          "type": "address"
        },
        {
          "internalType": "uint256",
          "name": "_tokenId",
          "type": "uint256"
        }
      ],
      "name": "getTokenAuctionDetails",
      "outputs": [
        {
          "components": [
            {
              "internalType": "address",
              "name": "seller",
              "type": "address"
            },
            {
              "internalType": "uint256",
              "name": "price",
              "type": "uint256"
            },
            {
              "internalType": "uint256",
              "name": "duration",
              "type": "uint256"
            },
            {
              "internalType": "address",
              "name": "tokenAddress",
              "type": "address"
            },
            {
              "internalType": "bool",
              "name": "isActive",
              "type": "bool"
            }
          ],
          "internalType": "struct AuctionFixedPrice.auctionDetails",
          "name": "",
          "type": "tuple"
        }
      ],
      "stateMutability": "view",
      "type": "function"
    },
    {
      "inputs": [
        {
          "internalType": "address",
          "name": "",
          "type": "address"
        },
        {
          "internalType": "address",
          "name": "",
          "type": "address"
        },
        {
          "internalType": "uint256",
          "name": "",
          "type": "uint256"
        },
        {
          "internalType": "bytes",
          "name": "",
          "type": "bytes"
        }
      ],
      "name": "onERC721Received",
      "outputs": [
        {
          "internalType": "bytes4",
          "name": "",
          "type": "bytes4"
        }
      ],
      "stateMutability": "nonpayable",
      "type": "function"
    },
    {
      "inputs": [
        {
          "internalType": "address",
          "name": "_nft",
          "type": "address"
        },
        {
          "internalType": "uint256",
          "name": "_tokenId",
          "type": "uint256"
        },
        {
          "internalType": "uint256",
          "name": "_price",
          "type": "uint256"
        }
      ],
      "name": "purchaseNFTToken",
      "outputs": [],
      "stateMutability": "nonpayable",
      "type": "function"
    },
    {
      "inputs": [
        {
          "internalType": "address",
          "name": "",
          "type": "address"
        },
        {
          "internalType": "uint256",
          "name": "",
          "type": "uint256"
        }
      ],
      "name": "tokenToAuction",
      "outputs": [
        {
          "internalType": "address",
          "name": "seller",
          "type": "address"
        },
        {
          "internalType": "uint256",
          "name": "price",
          "type": "uint256"
        },
        {
          "internalType": "uint256",
          "name": "duration",
          "type": "uint256"
        },
        {
          "internalType": "address",
          "name": "tokenAddress",
          "type": "address"
        },
        {
          "internalType": "bool",
          "name": "isActive",
          "type": "bool"
        }
      ],
      "stateMutability": "view",
      "type": "function"
    }
  ],
  "bytecode": "0x608060405234801561001057600080fd5b50611069806100206000396000f3fe608060405234801561001057600080fd5b50600436106100625760003560e01c8063150b7a0214610067578063722565c5146100975780637792ba5f146100c7578063cdbd4d01146100fb578063e31ca18a14610117578063fbbbf89d14610133575b600080fd5b610081600480360381019061007c9190610ae9565b61014f565b60405161008e9190610e58565b60405180910390f35b6100b160048036038101906100ac9190610b69565b61017d565b6040516100be9190610ed3565b60405180910390f35b6100e160048036038101906100dc9190610b69565b6102c8565b6040516100f2959493929190610e05565b60405180910390f35b61011560048036038101906101109190610b69565b610358565b005b610131600480360381019061012c9190610ba5565b6104d7565b005b61014d60048036038101906101489190610c1c565b610751565b005b60007f150b7a023d4804d13e8c85fb27262cb750cf6ba9f9dd3bb30d90f482ceeb4b1f905095945050505050565b610185610a03565b60008060008573ffffffffffffffffffffffffffffffffffffffff1673ffffffffffffffffffffffffffffffffffffffff16815260200190815260200160002060008481526020019081526020016000206040518060a00160405290816000820160009054906101000a900473ffffffffffffffffffffffffffffffffffffffff1673ffffffffffffffffffffffffffffffffffffffff1673ffffffffffffffffffffffffffffffffffffffff16815260200160018201548152602001600282015481526020016003820160009054906101000a900473ffffffffffffffffffffffffffffffffffffffff1673ffffffffffffffffffffffffffffffffffffffff1673ffffffffffffffffffffffffffffffffffffffff1681526020016003820160149054906101000a900460ff16151515158152505090508091505092915050565b6000602052816000526040600020602052806000526040600020600091509150508060000160009054906101000a900473ffffffffffffffffffffffffffffffffffffffff16908060010154908060020154908060030160009054906101000a900473ffffffffffffffffffffffffffffffffffffffff16908060030160149054906101000a900460ff16905085565b60008060008473ffffffffffffffffffffffffffffffffffffffff1673ffffffffffffffffffffffffffffffffffffffff168152602001908152602001600020600083815260200190815260200160002090503373ffffffffffffffffffffffffffffffffffffffff168160000160009054906101000a900473ffffffffffffffffffffffffffffffffffffffff1673ffffffffffffffffffffffffffffffffffffffff161461040757600080fd5b8060030160149054906101000a900460ff1661042257600080fd5b60008160030160146101000a81548160ff0219169083151502179055508273ffffffffffffffffffffffffffffffffffffffff166342842e0e308360000160009054906101000a900473ffffffffffffffffffffffffffffffffffffffff16856040518463ffffffff1660e01b81526004016104a093929190610dce565b600060405180830381600087803b1580156104ba57600080fd5b505af11580156104ce573d6000803e3d6000fd5b50505050505050565b600073ffffffffffffffffffffffffffffffffffffffff163373ffffffffffffffffffffffffffffffffffffffff16141561051157600080fd5b600073ffffffffffffffffffffffffffffffffffffffff168573ffffffffffffffffffffffffffffffffffffffff16141561054b57600080fd5b6000821161055857600080fd5b6000811161056557600080fd5b60006040518060a001604052803373ffffffffffffffffffffffffffffffffffffffff1681526020018481526020018381526020018573ffffffffffffffffffffffffffffffffffffffff16815260200160011515815250905060003390508673ffffffffffffffffffffffffffffffffffffffff166342842e0e8230896040518463ffffffff1660e01b815260040161060193929190610dce565b600060405180830381600087803b15801561061b57600080fd5b505af115801561062f573d6000803e3d6000fd5b50505050816000808973ffffffffffffffffffffffffffffffffffffffff1673ffffffffffffffffffffffffffffffffffffffff168152602001908152602001600020600088815260200190815260200160002060008201518160000160006101000a81548173ffffffffffffffffffffffffffffffffffffffff021916908373ffffffffffffffffffffffffffffffffffffffff160217905550602082015181600101556040820151816002015560608201518160030160006101000a81548173ffffffffffffffffffffffffffffffffffffffff021916908373ffffffffffffffffffffffffffffffffffffffff16021790555060808201518160030160146101000a81548160ff02191690831515021790555090505050505050505050565b60008060008573ffffffffffffffffffffffffffffffffffffffff1673ffffffffffffffffffffffffffffffffffffffff16815260200190815260200160002060008481526020019081526020016000209050428160020154116107ea576040517f08c379a00000000000000000000000000000000000000000000000000000000081526004016107e190610e93565b60405180910390fd5b80600101548214610830576040517f08c379a000000000000000000000000000000000000000000000000000000000815260040161082790610e73565b60405180910390fd5b8060030160149054906101000a900460ff1661084b57600080fd5b60008160030160146101000a81548160ff02191690831515021790555060008160000160009054906101000a900473ffffffffffffffffffffffffffffffffffffffff1690506000826001015490508260030160009054906101000a900473ffffffffffffffffffffffffffffffffffffffff1673ffffffffffffffffffffffffffffffffffffffff166323b872dd3384846040518463ffffffff1660e01b81526004016108fb93929190610dce565b602060405180830381600087803b15801561091557600080fd5b505af1158015610929573d6000803e3d6000fd5b505050506040513d601f19601f8201168201806040525081019061094d9190610c6b565b61098c576040517f08c379a000000000000000000000000000000000000000000000000000000000815260040161098390610eb3565b60405180910390fd5b8573ffffffffffffffffffffffffffffffffffffffff166342842e0e3033886040518463ffffffff1660e01b81526004016109c993929190610dce565b600060405180830381600087803b1580156109e357600080fd5b505af11580156109f7573d6000803e3d6000fd5b50505050505050505050565b6040518060a00160405280600073ffffffffffffffffffffffffffffffffffffffff1681526020016000815260200160008152602001600073ffffffffffffffffffffffffffffffffffffffff1681526020016000151581525090565b600081359050610a6f81610fee565b92915050565b600081519050610a8481611005565b92915050565b60008083601f840112610a9c57600080fd5b8235905067ffffffffffffffff811115610ab557600080fd5b602083019150836001820283011115610acd57600080fd5b9250929050565b600081359050610ae38161101c565b92915050565b600080600080600060808688031215610b0157600080fd5b6000610b0f88828901610a60565b9550506020610b2088828901610a60565b9450506040610b3188828901610ad4565b935050606086013567ffffffffffffffff811115610b4e57600080fd5b610b5a88828901610a8a565b92509250509295509295909350565b60008060408385031215610b7c57600080fd5b6000610b8a85828601610a60565b9250506020610b9b85828601610ad4565b9150509250929050565b600080600080600060a08688031215610bbd57600080fd5b6000610bcb88828901610a60565b9550506020610bdc88828901610ad4565b9450506040610bed88828901610a60565b9350506060610bfe88828901610ad4565b9250506080610c0f88828901610ad4565b9150509295509295909350565b600080600060608486031215610c3157600080fd5b6000610c3f86828701610a60565b9350506020610c5086828701610ad4565b9250506040610c6186828701610ad4565b9150509250925092565b600060208284031215610c7d57600080fd5b6000610c8b84828501610a75565b91505092915050565b610c9d81610eff565b82525050565b610cac81610eff565b82525050565b610cbb81610f11565b82525050565b610cca81610f11565b82525050565b610cd981610f1d565b82525050565b6000610cec600d83610eee565b9150610cf782610f73565b602082019050919050565b6000610d0f601783610eee565b9150610d1a82610f9c565b602082019050919050565b6000610d32601783610eee565b9150610d3d82610fc5565b602082019050919050565b60a082016000820151610d5e6000850182610c94565b506020820151610d716020850182610db0565b506040820151610d846040850182610db0565b506060820151610d976060850182610c94565b506080820151610daa6080850182610cb2565b50505050565b610db981610f69565b82525050565b610dc881610f69565b82525050565b6000606082019050610de36000830186610ca3565b610df06020830185610ca3565b610dfd6040830184610dbf565b949350505050565b600060a082019050610e1a6000830188610ca3565b610e276020830187610dbf565b610e346040830186610dbf565b610e416060830185610ca3565b610e4e6080830184610cc1565b9695505050505050565b6000602082019050610e6d6000830184610cd0565b92915050565b60006020820190508181036000830152610e8c81610cdf565b9050919050565b60006020820190508181036000830152610eac81610d02565b9050919050565b60006020820190508181036000830152610ecc81610d25565b9050919050565b600060a082019050610ee86000830184610d48565b92915050565b600082825260208201905092915050565b6000610f0a82610f49565b9050919050565b60008115159050919050565b60007fffffffff0000000000000000000000000000000000000000000000000000000082169050919050565b600073ffffffffffffffffffffffffffffffffffffffff82169050919050565b6000819050919050565b7f696e76616c696420707269636500000000000000000000000000000000000000600082015250565b7f446561646c696e6520616c726561647920706173736564000000000000000000600082015250565b7f657263203230207472616e73666572206661696c656421000000000000000000600082015250565b610ff781610eff565b811461100257600080fd5b50565b61100e81610f11565b811461101957600080fd5b50565b61102581610f69565b811461103057600080fd5b5056fea2646970667358221220f9bf988075592f17e076d14ae1c77ed8a9f953652e015b94efb344d9e729d73b64736f6c63430008030033",
  "linkReferences": {},
  "deployedLinkReferences": {}
}