{
  "_format": "hh-sol-artifact-1",
  "contractName": "CatBlindbox",
  "sourceName": "contracts/CatBlindbox.sol",
  "abi": [
    {
      "inputs": [
        {
          "internalType": "address",
          "name": "randomOracle",
          "type": "address"
        }
      ],
      "stateMutability": "nonpayable",
      "type": "constructor"
    },
    {
      "anonymous": false,
      "inputs": [
        {
          "indexed": true,
          "internalType": "address",
          "name": "owner",
          "type": "address"
        },
        {
          "indexed": true,
          "internalType": "address",
          "name": "approved",
          "type": "address"
        },
        {
          "indexed": true,
          "internalType": "uint256",
          "name": "tokenId",
          "type": "uint256"
        }
      ],
      "name": "Approval",
      "type": "event"
    },
    {
      "anonymous": false,
      "inputs": [
        {
          "indexed": true,
          "internalType": "address",
          "name": "owner",
          "type": "address"
        },
        {
          "indexed": true,
          "internalType": "address",
          "name": "operator",
          "type": "address"
        },
        {
          "indexed": false,
          "internalType": "bool",
          "name": "approved",
          "type": "bool"
        }
      ],
      "name": "ApprovalForAll",
      "type": "event"
    },
    {
      "anonymous": false,
      "inputs": [
        {
          "indexed": true,
          "internalType": "address",
          "name": "previousOwner",
          "type": "address"
        },
        {
          "indexed": true,
          "internalType": "address",
          "name": "newOwner",
          "type": "address"
        }
      ],
      "name": "OwnershipTransferred",
      "type": "event"
    },
    {
      "anonymous": false,
      "inputs": [
        {
          "indexed": false,
          "internalType": "address",
          "name": "sender",
          "type": "address"
        },
        {
          "indexed": false,
          "internalType": "string",
          "name": "catName",
          "type": "string"
        },
        {
          "indexed": false,
          "internalType": "bytes32",
          "name": "requestId",
          "type": "bytes32"
        }
      ],
      "name": "ResultOfNewBlindboxCat",
      "type": "event"
    },
    {
      "anonymous": false,
      "inputs": [
        {
          "indexed": false,
          "internalType": "bytes32",
          "name": "requestId",
          "type": "bytes32"
        },
        {
          "indexed": false,
          "internalType": "string",
          "name": "name",
          "type": "string"
        },
        {
          "indexed": false,
          "internalType": "string",
          "name": "series",
          "type": "string"
        },
        {
          "indexed": false,
          "internalType": "uint256",
          "name": "birthTime",
          "type": "uint256"
        },
        {
          "indexed": false,
          "internalType": "address",
          "name": "owner",
          "type": "address"
        },
        {
          "indexed": false,
          "internalType": "string",
          "name": "images",
          "type": "string"
        }
      ],
      "name": "SurpriseCat",
      "type": "event"
    },
    {
      "anonymous": false,
      "inputs": [
        {
          "indexed": true,
          "internalType": "address",
          "name": "from",
          "type": "address"
        },
        {
          "indexed": true,
          "internalType": "address",
          "name": "to",
          "type": "address"
        },
        {
          "indexed": true,
          "internalType": "uint256",
          "name": "tokenId",
          "type": "uint256"
        }
      ],
      "name": "Transfer",
      "type": "event"
    },
    {
      "inputs": [
        {
          "internalType": "address",
          "name": "to",
          "type": "address"
        },
        {
          "internalType": "uint256",
          "name": "tokenId",
          "type": "uint256"
        }
      ],
      "name": "approve",
      "outputs": [],
      "stateMutability": "nonpayable",
      "type": "function"
    },
    {
      "inputs": [
        {
          "internalType": "address",
          "name": "owner",
          "type": "address"
        }
      ],
      "name": "balanceOf",
      "outputs": [
        {
          "internalType": "uint256",
          "name": "",
          "type": "uint256"
        }
      ],
      "stateMutability": "view",
      "type": "function"
    },
    {
      "inputs": [
        {
          "internalType": "bytes32",
          "name": "requestId",
          "type": "bytes32"
        }
      ],
      "name": "generateBlindBoxCat",
      "outputs": [],
      "stateMutability": "nonpayable",
      "type": "function"
    },
    {
      "inputs": [
        {
          "internalType": "uint256",
          "name": "",
          "type": "uint256"
        }
      ],
      "name": "generatedCats",
      "outputs": [
        {
          "internalType": "uint256",
          "name": "catId",
          "type": "uint256"
        },
        {
          "internalType": "string",
          "name": "name",
          "type": "string"
        },
        {
          "internalType": "string",
          "name": "species",
          "type": "string"
        },
        {
          "internalType": "uint256",
          "name": "birthTime",
          "type": "uint256"
        },
        {
          "internalType": "address",
          "name": "owner",
          "type": "address"
        },
        {
          "internalType": "string",
          "name": "images",
          "type": "string"
        }
      ],
      "stateMutability": "view",
      "type": "function"
    },
    {
      "inputs": [
        {
          "internalType": "uint256",
          "name": "tokenId",
          "type": "uint256"
        }
      ],
      "name": "getApproved",
      "outputs": [
        {
          "internalType": "address",
          "name": "",
          "type": "address"
        }
      ],
      "stateMutability": "view",
      "type": "function"
    },
    {
      "inputs": [
        {
          "internalType": "uint256",
          "name": "catId",
          "type": "uint256"
        }
      ],
      "name": "getCatInfo",
      "outputs": [
        {
          "internalType": "uint256",
          "name": "",
          "type": "uint256"
        },
        {
          "internalType": "string",
          "name": "",
          "type": "string"
        },
        {
          "internalType": "string",
          "name": "",
          "type": "string"
        },
        {
          "internalType": "uint256",
          "name": "",
          "type": "uint256"
        },
        {
          "internalType": "address",
          "name": "",
          "type": "address"
        },
        {
          "internalType": "string",
          "name": "",
          "type": "string"
        }
      ],
      "stateMutability": "view",
      "type": "function"
    },
    {
      "inputs": [],
      "name": "getLength",
      "outputs": [
        {
          "internalType": "uint256",
          "name": "",
          "type": "uint256"
        }
      ],
      "stateMutability": "view",
      "type": "function"
    },
    {
      "inputs": [
        {
          "internalType": "address",
          "name": "owner",
          "type": "address"
        },
        {
          "internalType": "address",
          "name": "operator",
          "type": "address"
        }
      ],
      "name": "isApprovedForAll",
      "outputs": [
        {
          "internalType": "bool",
          "name": "",
          "type": "bool"
        }
      ],
      "stateMutability": "view",
      "type": "function"
    },
    {
      "inputs": [],
      "name": "name",
      "outputs": [
        {
          "internalType": "string",
          "name": "",
          "type": "string"
        }
      ],
      "stateMutability": "view",
      "type": "function"
    },
    {
      "inputs": [],
      "name": "owner",
      "outputs": [
        {
          "internalType": "address",
          "name": "",
          "type": "address"
        }
      ],
      "stateMutability": "view",
      "type": "function"
    },
    {
      "inputs": [
        {
          "internalType": "uint256",
          "name": "tokenId",
          "type": "uint256"
        }
      ],
      "name": "ownerOf",
      "outputs": [
        {
          "internalType": "address",
          "name": "",
          "type": "address"
        }
      ],
      "stateMutability": "view",
      "type": "function"
    },
    {
      "inputs": [],
      "name": "renounceOwnership",
      "outputs": [],
      "stateMutability": "nonpayable",
      "type": "function"
    },
    {
      "inputs": [
        {
          "internalType": "uint256",
          "name": "userProvidedSeed",
          "type": "uint256"
        },
        {
          "internalType": "string",
          "name": "name",
          "type": "string"
        }
      ],
      "name": "requestNewBlindboxCat",
      "outputs": [
        {
          "internalType": "bytes32",
          "name": "",
          "type": "bytes32"
        }
      ],
      "stateMutability": "nonpayable",
      "type": "function"
    },
    {
      "inputs": [
        {
          "internalType": "address",
          "name": "from",
          "type": "address"
        },
        {
          "internalType": "address",
          "name": "to",
          "type": "address"
        },
        {
          "internalType": "uint256",
          "name": "tokenId",
          "type": "uint256"
        }
      ],
      "name": "safeTransferFrom",
      "outputs": [],
      "stateMutability": "nonpayable",
      "type": "function"
    },
    {
      "inputs": [
        {
          "internalType": "address",
          "name": "from",
          "type": "address"
        },
        {
          "internalType": "address",
          "name": "to",
          "type": "address"
        },
        {
          "internalType": "uint256",
          "name": "tokenId",
          "type": "uint256"
        },
        {
          "internalType": "bytes",
          "name": "_data",
          "type": "bytes"
        }
      ],
      "name": "safeTransferFrom",
      "outputs": [],
      "stateMutability": "nonpayable",
      "type": "function"
    },
    {
      "inputs": [
        {
          "internalType": "address",
          "name": "operator",
          "type": "address"
        },
        {
          "internalType": "bool",
          "name": "approved",
          "type": "bool"
        }
      ],
      "name": "setApprovalForAll",
      "outputs": [],
      "stateMutability": "nonpayable",
      "type": "function"
    },
    {
      "inputs": [
        {
          "internalType": "bytes4",
          "name": "interfaceId",
          "type": "bytes4"
        }
      ],
      "name": "supportsInterface",
      "outputs": [
        {
          "internalType": "bool",
          "name": "",
          "type": "bool"
        }
      ],
      "stateMutability": "view",
      "type": "function"
    },
    {
      "inputs": [],
      "name": "symbol",
      "outputs": [
        {
          "internalType": "string",
          "name": "",
          "type": "string"
        }
      ],
      "stateMutability": "view",
      "type": "function"
    },
    {
      "inputs": [
        {
          "internalType": "uint256",
          "name": "tokenId",
          "type": "uint256"
        }
      ],
      "name": "tokenURI",
      "outputs": [
        {
          "internalType": "string",
          "name": "",
          "type": "string"
        }
      ],
      "stateMutability": "view",
      "type": "function"
    },
    {
      "inputs": [
        {
          "internalType": "address",
          "name": "from",
          "type": "address"
        },
        {
          "internalType": "address",
          "name": "to",
          "type": "address"
        },
        {
          "internalType": "uint256",
          "name": "tokenId",
          "type": "uint256"
        }
      ],
      "name": "transferFrom",
      "outputs": [],
      "stateMutability": "nonpayable",
      "type": "function"
    },
    {
      "inputs": [
        {
          "internalType": "address",
          "name": "newOwner",
          "type": "address"
        }
      ],
      "name": "transferOwnership",
      "outputs": [],
      "stateMutability": "nonpayable",
      "type": "function"
    }
  ],
  "bytecode": "0x60806040526040518060e001604052806040518060400160405280601281526020017f416d65726963616e2053686f727468616972000000000000000000000000000081525081526020016040518060400160405280601181526020017f427269746973682053686f72746861697200000000000000000000000000000081525081526020016040518060400160405280601081526020017f4a6170616e65736520426f627461696c0000000000000000000000000000000081525081526020016040518060400160405280600e81526020017f4368696e657365204f72616e676500000000000000000000000000000000000081525081526020016040518060400160405280600c81526020017f5275737369616e20426c7565000000000000000000000000000000000000000081525081526020016040518060400160405280600781526020017f5065727369616e0000000000000000000000000000000000000000000000000081525081526020016040518060400160405280600781526020017f526167646f6c6c000000000000000000000000000000000000000000000000008152508152506007906007620001bc929190620006c2565b506040518060e0016040528060405180608001604052806047815260200162004b3e60479139815260200160405180608001604052806047815260200162004a6c604791398152602001604051806080016040528060478152602001620049de60479139815260200160405180608001604052806044815260200162004afa60449139815260200160405180608001604052806047815260200162004ab36047913981526020016040518060800160405280604781526020016200499760479139815260200160405180608001604052806047815260200162004a2560479139815250600e906007620002b1929190620006c2565b50348015620002bf57600080fd5b5060405162004b8538038062004b858339818101604052810190620002e5919062000851565b6040518060400160405280601181526020017f436174426c696e64426f785365726965730000000000000000000000000000008152506040518060400160405280600381526020017f43617400000000000000000000000000000000000000000000000000000000008152508160009080519060200190620003699291906200071c565b508060019080519060200190620003829291906200071c565b505050600062000397620006ba60201b60201c565b905080600660006101000a81548173ffffffffffffffffffffffffffffffffffffffff021916908373ffffffffffffffffffffffffffffffffffffffff1602179055508073ffffffffffffffffffffffffffffffffffffffff16600073ffffffffffffffffffffffffffffffffffffffff167f8be0079c531659141344cd1fd0a4f28419497f9722a3daafe3b4186f6b6457e060405160405180910390a35080601960006101000a81548173ffffffffffffffffffffffffffffffffffffffff021916908373ffffffffffffffffffffffffffffffffffffffff16021790555060005b6007811015620006b2576015604051806040016040528060078460078110620004cc577f4e487b7100000000000000000000000000000000000000000000000000000000600052603260045260246000fd5b018054620004da90620008bb565b80601f01602080910402602001604051908101604052809291908181526020018280546200050890620008bb565b8015620005595780601f106200052d5761010080835404028352916020019162000559565b820191906000526020600020905b8154815290600101906020018083116200053b57829003601f168201915b50505050508152602001600e84600781106200059e577f4e487b7100000000000000000000000000000000000000000000000000000000600052603260045260246000fd5b018054620005ac90620008bb565b80601f0160208091040260200160405190810160405280929190818152602001828054620005da90620008bb565b80156200062b5780601f10620005ff576101008083540402835291602001916200062b565b820191906000526020600020905b8154815290600101906020018083116200060d57829003601f168201915b5050505050815250908060018154018082558091505060019003906000526020600020906002020160009091909190915060008201518160000190805190602001906200067a9291906200071c565b506020820151816001019080519060200190620006999291906200071c565b5050508080620006a990620008f1565b9150506200047a565b5050620009b7565b600033905090565b826007810192821562000709579160200282015b8281111562000708578251829080519060200190620006f79291906200071c565b5091602001919060010190620006d6565b5b509050620007189190620007ad565b5090565b8280546200072a90620008bb565b90600052602060002090601f0160209004810192826200074e57600085556200079a565b82601f106200076957805160ff19168380011785556200079a565b828001600101855582156200079a579182015b82811115620007995782518255916020019190600101906200077c565b5b509050620007a99190620007d5565b5090565b5b80821115620007d15760008181620007c79190620007f4565b50600101620007ae565b5090565b5b80821115620007f0576000816000905550600101620007d6565b5090565b5080546200080290620008bb565b6000825580601f1062000816575062000837565b601f016020900490600052602060002090810190620008369190620007d5565b5b50565b6000815190506200084b816200099d565b92915050565b6000602082840312156200086457600080fd5b600062000874848285016200083a565b91505092915050565b60006200088a8262000891565b9050919050565b600073ffffffffffffffffffffffffffffffffffffffff82169050919050565b6000819050919050565b60006002820490506001821680620008d457607f821691505b60208210811415620008eb57620008ea6200096e565b5b50919050565b6000620008fe82620008b1565b91507fffffffffffffffffffffffffffffffffffffffffffffffffffffffffffffffff8214156200093457620009336200093f565b5b600182019050919050565b7f4e487b7100000000000000000000000000000000000000000000000000000000600052601160045260246000fd5b7f4e487b7100000000000000000000000000000000000000000000000000000000600052602260045260246000fd5b620009a8816200087d565b8114620009b457600080fd5b50565b613fd080620009c76000396000f3fe608060405234801561001057600080fd5b50600436106101375760003560e01c8063715018a6116100b8578063b88d4fde1161007c578063b88d4fde14610351578063b973322a1461036d578063be1c766b146103a2578063c87b56dd146103c0578063e985e9c5146103f0578063f2fde38b1461042057610137565b8063715018a6146102d35780637ee9f3bd146102dd5780638da5cb5b146102f957806395d89b4114610317578063a22cb4651461033557610137565b806323b872dd116100ff57806323b872dd1461020657806342842e0e146102225780635de32ef51461023e5780636352211e1461027357806370a08231146102a357610137565b806301ffc9a71461013c57806306fdde031461016c578063081812fc1461018a578063095ea7b3146101ba578063181ba3b7146101d6575b600080fd5b61015660048036038101906101519190612db3565b61043c565b60405161016391906132c9565b60405180910390f35b61017461051e565b6040516101819190613375565b60405180910390f35b6101a4600480360381019061019f9190612e05565b6105b0565b6040516101b19190613224565b60405180910390f35b6101d460048036038101906101cf9190612cfc565b610635565b005b6101f060048036038101906101eb9190612e57565b61074d565b6040516101fd91906132e4565b60405180910390f35b610220600480360381019061021b9190612bf6565b610906565b005b61023c60048036038101906102379190612bf6565b610966565b005b61025860048036038101906102539190612e05565b610986565b60405161026a969594939291906135f2565b60405180910390f35b61028d60048036038101906102889190612e05565b610c3b565b60405161029a9190613224565b60405180910390f35b6102bd60048036038101906102b89190612b91565b610ced565b6040516102ca91906135d7565b60405180910390f35b6102db610da5565b005b6102f760048036038101906102f29190612d61565b610ee2565b005b610301611534565b60405161030e9190613224565b60405180910390f35b61031f61155e565b60405161032c9190613375565b60405180910390f35b61034f600480360381019061034a9190612cc0565b6115f0565b005b61036b60048036038101906103669190612c45565b611771565b005b61038760048036038101906103829190612e05565b6117d3565b604051610399969594939291906135f2565b60405180910390f35b6103aa6119d7565b6040516103b791906135d7565b60405180910390f35b6103da60048036038101906103d59190612e05565b6119e4565b6040516103e79190613375565b60405180910390f35b61040a60048036038101906104059190612bba565b611a8b565b60405161041791906132c9565b60405180910390f35b61043a60048036038101906104359190612b91565b611b1f565b005b60007f80ac58cd000000000000000000000000000000000000000000000000000000007bffffffffffffffffffffffffffffffffffffffffffffffffffffffff1916827bffffffffffffffffffffffffffffffffffffffffffffffffffffffff1916148061050757507f5b5e139f000000000000000000000000000000000000000000000000000000007bffffffffffffffffffffffffffffffffffffffffffffffffffffffff1916827bffffffffffffffffffffffffffffffffffffffffffffffffffffffff1916145b80610517575061051682611ccb565b5b9050919050565b60606000805461052d906138ad565b80601f0160208091040260200160405190810160405280929190818152602001828054610559906138ad565b80156105a65780601f1061057b576101008083540402835291602001916105a6565b820191906000526020600020905b81548152906001019060200180831161058957829003601f168201915b5050505050905090565b60006105bb82611d35565b6105fa576040517f08c379a00000000000000000000000000000000000000000000000000000000081526004016105f1906134f7565b60405180910390fd5b6004600083815260200190815260200160002060009054906101000a900473ffffffffffffffffffffffffffffffffffffffff169050919050565b600061064082610c3b565b90508073ffffffffffffffffffffffffffffffffffffffff168373ffffffffffffffffffffffffffffffffffffffff1614156106b1576040517f08c379a00000000000000000000000000000000000000000000000000000000081526004016106a890613577565b60405180910390fd5b8073ffffffffffffffffffffffffffffffffffffffff166106d0611da1565b73ffffffffffffffffffffffffffffffffffffffff1614806106ff57506106fe816106f9611da1565b611a8b565b5b61073e576040517f08c379a000000000000000000000000000000000000000000000000000000000815260040161073590613457565b60405180910390fd5b6107488383611da9565b505050565b60008060158054905011610796576040517f08c379a000000000000000000000000000000000000000000000000000000000815260040161078d906134b7565b60405180910390fd5b6000601960009054906101000a900473ffffffffffffffffffffffffffffffffffffffff1673ffffffffffffffffffffffffffffffffffffffff1663b1eb96c9856040518263ffffffff1660e01b81526004016107f391906135d7565b602060405180830381600087803b15801561080d57600080fd5b505af1158015610821573d6000803e3d6000fd5b505050506040513d601f19601f820116820180604052508101906108459190612d8a565b90508260176000838152602001908152602001600020908051906020019061086e929190612894565b50336018600083815260200190815260200160002060006101000a81548173ffffffffffffffffffffffffffffffffffffffff021916908373ffffffffffffffffffffffffffffffffffffffff1602179055507f3715a27895dd14dc65d78494fb8fb93075aa149c0dfa0f2a175046aedf59d46c3384836040516108f49392919061328b565b60405180910390a18091505092915050565b610917610911611da1565b82611e62565b610956576040517f08c379a000000000000000000000000000000000000000000000000000000000815260040161094d90613597565b60405180910390fd5b610961838383611f40565b505050565b61098183838360405180602001604052806000815250611771565b505050565b600060608060008060606000601688815481106109cc577f4e487b7100000000000000000000000000000000000000000000000000000000600052603260045260246000fd5b90600052602060002090600602016040518060c0016040529081600082015481526020016001820180546109ff906138ad565b80601f0160208091040260200160405190810160405280929190818152602001828054610a2b906138ad565b8015610a785780601f10610a4d57610100808354040283529160200191610a78565b820191906000526020600020905b815481529060010190602001808311610a5b57829003601f168201915b50505050508152602001600282018054610a91906138ad565b80601f0160208091040260200160405190810160405280929190818152602001828054610abd906138ad565b8015610b0a5780601f10610adf57610100808354040283529160200191610b0a565b820191906000526020600020905b815481529060010190602001808311610aed57829003601f168201915b50505050508152602001600382015481526020016004820160009054906101000a900473ffffffffffffffffffffffffffffffffffffffff1673ffffffffffffffffffffffffffffffffffffffff1673ffffffffffffffffffffffffffffffffffffffff168152602001600582018054610b83906138ad565b80601f0160208091040260200160405190810160405280929190818152602001828054610baf906138ad565b8015610bfc5780601f10610bd157610100808354040283529160200191610bfc565b820191906000526020600020905b815481529060010190602001808311610bdf57829003601f168201915b5050505050815250509050806000015181602001518260400151836060015184608001518560a001519650965096509650965096505091939550919395565b6000806002600084815260200190815260200160002060009054906101000a900473ffffffffffffffffffffffffffffffffffffffff169050600073ffffffffffffffffffffffffffffffffffffffff168173ffffffffffffffffffffffffffffffffffffffff161415610ce4576040517f08c379a0000000000000000000000000000000000000000000000000000000008152600401610cdb90613497565b60405180910390fd5b80915050919050565b60008073ffffffffffffffffffffffffffffffffffffffff168273ffffffffffffffffffffffffffffffffffffffff161415610d5e576040517f08c379a0000000000000000000000000000000000000000000000000000000008152600401610d5590613477565b60405180910390fd5b600360008373ffffffffffffffffffffffffffffffffffffffff1673ffffffffffffffffffffffffffffffffffffffff168152602001908152602001600020549050919050565b610dad611da1565b73ffffffffffffffffffffffffffffffffffffffff16610dcb611534565b73ffffffffffffffffffffffffffffffffffffffff1614610e21576040517f08c379a0000000000000000000000000000000000000000000000000000000008152600401610e1890613517565b60405180910390fd5b600073ffffffffffffffffffffffffffffffffffffffff16600660009054906101000a900473ffffffffffffffffffffffffffffffffffffffff1673ffffffffffffffffffffffffffffffffffffffff167f8be0079c531659141344cd1fd0a4f28419497f9722a3daafe3b4186f6b6457e060405160405180910390a36000600660006101000a81548173ffffffffffffffffffffffffffffffffffffffff021916908373ffffffffffffffffffffffffffffffffffffffff160217905550565b600060158054905011610f2a576040517f08c379a0000000000000000000000000000000000000000000000000000000008152600401610f21906134b7565b60405180910390fd5b60001515601960009054906101000a900473ffffffffffffffffffffffffffffffffffffffff1673ffffffffffffffffffffffffffffffffffffffff1663c75f695a836040518263ffffffff1660e01b8152600401610f8991906132e4565b60206040518083038186803b158015610fa157600080fd5b505afa158015610fb5573d6000803e3d6000fd5b505050506040513d601f19601f82011682018060405250810190610fd99190612d38565b15151461101b576040517f08c379a0000000000000000000000000000000000000000000000000000000008152600401611012906135b7565b60405180910390fd5b6000601960009054906101000a900473ffffffffffffffffffffffffffffffffffffffff1673ffffffffffffffffffffffffffffffffffffffff16632dff0d0d836040518263ffffffff1660e01b815260040161107891906132e4565b60206040518083038186803b15801561109057600080fd5b505afa1580156110a4573d6000803e3d6000fd5b505050506040513d601f19601f820116820180604052508101906110c89190612e2e565b90506000601580549050826110dd9190613959565b905060006017600085815260200190815260200160002080546110ff906138ad565b80601f016020809104026020016040519081016040528092919081815260200182805461112b906138ad565b80156111785780601f1061114d57610100808354040283529160200191611178565b820191906000526020600020905b81548152906001019060200180831161115b57829003601f168201915b50505050509050600060158360ff16815481106111be577f4e487b7100000000000000000000000000000000000000000000000000000000600052603260045260246000fd5b90600052602060002090600202016040518060400160405290816000820180546111e7906138ad565b80601f0160208091040260200160405190810160405280929190818152602001828054611213906138ad565b80156112605780601f1061123557610100808354040283529160200191611260565b820191906000526020600020905b81548152906001019060200180831161124357829003601f168201915b50505050508152602001600182018054611279906138ad565b80601f01602080910402602001604051908101604052809291908181526020018280546112a5906138ad565b80156112f25780601f106112c7576101008083540402835291602001916112f2565b820191906000526020600020905b8154815290600101906020018083116112d557829003601f168201915b50505050508152505090506113068361219c565b60004290506000601680549050905060166040518060c0016040528083815260200186815260200185600001518152602001848152602001601860008b815260200190815260200160002060009054906101000a900473ffffffffffffffffffffffffffffffffffffffff1673ffffffffffffffffffffffffffffffffffffffff168152602001856020015181525090806001815401808255809150506001900390600052602060002090600602016000909190919091506000820151816000015560208201518160010190805190602001906113e4929190612894565b506040820151816002019080519060200190611401929190612894565b506060820151816003015560808201518160040160006101000a81548173ffffffffffffffffffffffffffffffffffffffff021916908373ffffffffffffffffffffffffffffffffffffffff16021790555060a082015181600501908051906020019061146f929190612894565b5050506114af6018600089815260200190815260200160002060009054906101000a900473ffffffffffffffffffffffffffffffffffffffff16826122f7565b7f5360cbf98a3d257ddc33c57948364330a1d78a96c34d08da1e01721bbc73d25e8785856000015185601860008d815260200190815260200160002060009054906101000a900473ffffffffffffffffffffffffffffffffffffffff168860200151604051611523969594939291906132ff565b60405180910390a150505050505050565b6000600660009054906101000a900473ffffffffffffffffffffffffffffffffffffffff16905090565b60606001805461156d906138ad565b80601f0160208091040260200160405190810160405280929190818152602001828054611599906138ad565b80156115e65780601f106115bb576101008083540402835291602001916115e6565b820191906000526020600020905b8154815290600101906020018083116115c957829003601f168201915b5050505050905090565b6115f8611da1565b73ffffffffffffffffffffffffffffffffffffffff168273ffffffffffffffffffffffffffffffffffffffff161415611666576040517f08c379a000000000000000000000000000000000000000000000000000000000815260040161165d90613417565b60405180910390fd5b8060056000611673611da1565b73ffffffffffffffffffffffffffffffffffffffff1673ffffffffffffffffffffffffffffffffffffffff16815260200190815260200160002060008473ffffffffffffffffffffffffffffffffffffffff1673ffffffffffffffffffffffffffffffffffffffff16815260200190815260200160002060006101000a81548160ff0219169083151502179055508173ffffffffffffffffffffffffffffffffffffffff16611720611da1565b73ffffffffffffffffffffffffffffffffffffffff167f17307eab39ab6107e8899845ad3d59bd9653f200f220920489ca2b5937696c318360405161176591906132c9565b60405180910390a35050565b61178261177c611da1565b83611e62565b6117c1576040517f08c379a00000000000000000000000000000000000000000000000000000000081526004016117b890613597565b60405180910390fd5b6117cd848484846124c5565b50505050565b601681815481106117e357600080fd5b906000526020600020906006020160009150905080600001549080600101805461180c906138ad565b80601f0160208091040260200160405190810160405280929190818152602001828054611838906138ad565b80156118855780601f1061185a57610100808354040283529160200191611885565b820191906000526020600020905b81548152906001019060200180831161186857829003601f168201915b50505050509080600201805461189a906138ad565b80601f01602080910402602001604051908101604052809291908181526020018280546118c6906138ad565b80156119135780601f106118e857610100808354040283529160200191611913565b820191906000526020600020905b8154815290600101906020018083116118f657829003601f168201915b5050505050908060030154908060040160009054906101000a900473ffffffffffffffffffffffffffffffffffffffff1690806005018054611954906138ad565b80601f0160208091040260200160405190810160405280929190818152602001828054611980906138ad565b80156119cd5780601f106119a2576101008083540402835291602001916119cd565b820191906000526020600020905b8154815290600101906020018083116119b057829003601f168201915b5050505050905086565b6000601580549050905090565b60606119ef82611d35565b611a2e576040517f08c379a0000000000000000000000000000000000000000000000000000000008152600401611a2590613557565b60405180910390fd5b6000611a38612521565b90506000815111611a585760405180602001604052806000815250611a83565b80611a6284612538565b604051602001611a73929190613200565b6040516020818303038152906040525b915050919050565b6000600560008473ffffffffffffffffffffffffffffffffffffffff1673ffffffffffffffffffffffffffffffffffffffff16815260200190815260200160002060008373ffffffffffffffffffffffffffffffffffffffff1673ffffffffffffffffffffffffffffffffffffffff16815260200190815260200160002060009054906101000a900460ff16905092915050565b611b27611da1565b73ffffffffffffffffffffffffffffffffffffffff16611b45611534565b73ffffffffffffffffffffffffffffffffffffffff1614611b9b576040517f08c379a0000000000000000000000000000000000000000000000000000000008152600401611b9290613517565b60405180910390fd5b600073ffffffffffffffffffffffffffffffffffffffff168173ffffffffffffffffffffffffffffffffffffffff161415611c0b576040517f08c379a0000000000000000000000000000000000000000000000000000000008152600401611c02906133b7565b60405180910390fd5b8073ffffffffffffffffffffffffffffffffffffffff16600660009054906101000a900473ffffffffffffffffffffffffffffffffffffffff1673ffffffffffffffffffffffffffffffffffffffff167f8be0079c531659141344cd1fd0a4f28419497f9722a3daafe3b4186f6b6457e060405160405180910390a380600660006101000a81548173ffffffffffffffffffffffffffffffffffffffff021916908373ffffffffffffffffffffffffffffffffffffffff16021790555050565b60007f01ffc9a7000000000000000000000000000000000000000000000000000000007bffffffffffffffffffffffffffffffffffffffffffffffffffffffff1916827bffffffffffffffffffffffffffffffffffffffffffffffffffffffff1916149050919050565b60008073ffffffffffffffffffffffffffffffffffffffff166002600084815260200190815260200160002060009054906101000a900473ffffffffffffffffffffffffffffffffffffffff1673ffffffffffffffffffffffffffffffffffffffff1614159050919050565b600033905090565b816004600083815260200190815260200160002060006101000a81548173ffffffffffffffffffffffffffffffffffffffff021916908373ffffffffffffffffffffffffffffffffffffffff160217905550808273ffffffffffffffffffffffffffffffffffffffff16611e1c83610c3b565b73ffffffffffffffffffffffffffffffffffffffff167f8c5be1e5ebec7d5bd14f71427d1e84f3dd0314c0f7b2291e5b200ac8c7c3b92560405160405180910390a45050565b6000611e6d82611d35565b611eac576040517f08c379a0000000000000000000000000000000000000000000000000000000008152600401611ea390613437565b60405180910390fd5b6000611eb783610c3b565b90508073ffffffffffffffffffffffffffffffffffffffff168473ffffffffffffffffffffffffffffffffffffffff161480611f2657508373ffffffffffffffffffffffffffffffffffffffff16611f0e846105b0565b73ffffffffffffffffffffffffffffffffffffffff16145b80611f375750611f368185611a8b565b5b91505092915050565b8273ffffffffffffffffffffffffffffffffffffffff16611f6082610c3b565b73ffffffffffffffffffffffffffffffffffffffff1614611fb6576040517f08c379a0000000000000000000000000000000000000000000000000000000008152600401611fad90613537565b60405180910390fd5b600073ffffffffffffffffffffffffffffffffffffffff168273ffffffffffffffffffffffffffffffffffffffff161415612026576040517f08c379a000000000000000000000000000000000000000000000000000000000815260040161201d906133f7565b60405180910390fd5b6120318383836126e5565b61203c600082611da9565b6001600360008573ffffffffffffffffffffffffffffffffffffffff1673ffffffffffffffffffffffffffffffffffffffff168152602001908152602001600020600082825461208c91906137b9565b925050819055506001600360008473ffffffffffffffffffffffffffffffffffffffff1673ffffffffffffffffffffffffffffffffffffffff16815260200190815260200160002060008282546120e39190613732565b92505081905550816002600083815260200190815260200160002060006101000a81548173ffffffffffffffffffffffffffffffffffffffff021916908373ffffffffffffffffffffffffffffffffffffffff160217905550808273ffffffffffffffffffffffffffffffffffffffff168473ffffffffffffffffffffffffffffffffffffffff167fddf252ad1be2c89b69c2b068fc378daa952ba7f163c4a11628f55a4df523b3ef60405160405180910390a4505050565b601560016015805490506121b091906137b9565b815481106121e7577f4e487b7100000000000000000000000000000000000000000000000000000000600052603260045260246000fd5b906000526020600020906002020160158260ff1681548110612232577f4e487b7100000000000000000000000000000000000000000000000000000000600052603260045260246000fd5b90600052602060002090600202016000820181600001908054612254906138ad565b61225f92919061291a565b506001820181600101908054612274906138ad565b61227f92919061291a565b5090505060158054806122bb577f4e487b7100000000000000000000000000000000000000000000000000000000600052603160045260246000fd5b6001900381819060005260206000209060020201600080820160006122e091906129a7565b6001820160006122f091906129a7565b5050905550565b600073ffffffffffffffffffffffffffffffffffffffff168273ffffffffffffffffffffffffffffffffffffffff161415612367576040517f08c379a000000000000000000000000000000000000000000000000000000000815260040161235e906134d7565b60405180910390fd5b61237081611d35565b156123b0576040517f08c379a00000000000000000000000000000000000000000000000000000000081526004016123a7906133d7565b60405180910390fd5b6123bc600083836126e5565b6001600360008473ffffffffffffffffffffffffffffffffffffffff1673ffffffffffffffffffffffffffffffffffffffff168152602001908152602001600020600082825461240c9190613732565b92505081905550816002600083815260200190815260200160002060006101000a81548173ffffffffffffffffffffffffffffffffffffffff021916908373ffffffffffffffffffffffffffffffffffffffff160217905550808273ffffffffffffffffffffffffffffffffffffffff16600073ffffffffffffffffffffffffffffffffffffffff167fddf252ad1be2c89b69c2b068fc378daa952ba7f163c4a11628f55a4df523b3ef60405160405180910390a45050565b6124d0848484611f40565b6124dc848484846126ea565b61251b576040517f08c379a000000000000000000000000000000000000000000000000000000000815260040161251290613397565b60405180910390fd5b50505050565b606060405180602001604052806000815250905090565b60606000821415612580576040518060400160405280600181526020017f300000000000000000000000000000000000000000000000000000000000000081525090506126e0565b600082905060005b600082146125b257808061259b90613910565b915050600a826125ab9190613788565b9150612588565b60008167ffffffffffffffff8111156125f4577f4e487b7100000000000000000000000000000000000000000000000000000000600052604160045260246000fd5b6040519080825280601f01601f1916602001820160405280156126265781602001600182028036833780820191505090505b5090505b600085146126d95760018261263f91906137b9565b9150600a8561264e9190613959565b603061265a9190613732565b60f81b818381518110612696577f4e487b7100000000000000000000000000000000000000000000000000000000600052603260045260246000fd5b60200101907effffffffffffffffffffffffffffffffffffffffffffffffffffffffffffff1916908160001a905350600a856126d29190613788565b945061262a565b8093505050505b919050565b505050565b600061270b8473ffffffffffffffffffffffffffffffffffffffff16612881565b15612874578373ffffffffffffffffffffffffffffffffffffffff1663150b7a02612734611da1565b8786866040518563ffffffff1660e01b8152600401612756949392919061323f565b602060405180830381600087803b15801561277057600080fd5b505af19250505080156127a157506040513d601f19601f8201168201806040525081019061279e9190612ddc565b60015b612824573d80600081146127d1576040519150601f19603f3d011682016040523d82523d6000602084013e6127d6565b606091505b5060008151141561281c576040517f08c379a000000000000000000000000000000000000000000000000000000000815260040161281390613397565b60405180910390fd5b805181602001fd5b63150b7a0260e01b7bffffffffffffffffffffffffffffffffffffffffffffffffffffffff1916817bffffffffffffffffffffffffffffffffffffffffffffffffffffffff191614915050612879565b600190505b949350505050565b600080823b905060008111915050919050565b8280546128a0906138ad565b90600052602060002090601f0160209004810192826128c25760008555612909565b82601f106128db57805160ff1916838001178555612909565b82800160010185558215612909579182015b828111156129085782518255916020019190600101906128ed565b5b50905061291691906129e7565b5090565b828054612926906138ad565b90600052602060002090601f0160209004810192826129485760008555612996565b82601f106129595780548555612996565b8280016001018555821561299657600052602060002091601f016020900482015b8281111561299557825482559160010191906001019061297a565b5b5090506129a391906129e7565b5090565b5080546129b3906138ad565b6000825580601f106129c557506129e4565b601f0160209004906000526020600020908101906129e391906129e7565b5b50565b5b80821115612a005760008160009055506001016129e8565b5090565b6000612a17612a128461368d565b613668565b905082815260208101848484011115612a2f57600080fd5b612a3a84828561386b565b509392505050565b6000612a55612a50846136be565b613668565b905082815260208101848484011115612a6d57600080fd5b612a7884828561386b565b509392505050565b600081359050612a8f81613f27565b92915050565b600081359050612aa481613f3e565b92915050565b600081519050612ab981613f3e565b92915050565b600081359050612ace81613f55565b92915050565b600081519050612ae381613f55565b92915050565b600081359050612af881613f6c565b92915050565b600081519050612b0d81613f6c565b92915050565b600082601f830112612b2457600080fd5b8135612b34848260208601612a04565b91505092915050565b600082601f830112612b4e57600080fd5b8135612b5e848260208601612a42565b91505092915050565b600081359050612b7681613f83565b92915050565b600081519050612b8b81613f83565b92915050565b600060208284031215612ba357600080fd5b6000612bb184828501612a80565b91505092915050565b60008060408385031215612bcd57600080fd5b6000612bdb85828601612a80565b9250506020612bec85828601612a80565b9150509250929050565b600080600060608486031215612c0b57600080fd5b6000612c1986828701612a80565b9350506020612c2a86828701612a80565b9250506040612c3b86828701612b67565b9150509250925092565b60008060008060808587031215612c5b57600080fd5b6000612c6987828801612a80565b9450506020612c7a87828801612a80565b9350506040612c8b87828801612b67565b925050606085013567ffffffffffffffff811115612ca857600080fd5b612cb487828801612b13565b91505092959194509250565b60008060408385031215612cd357600080fd5b6000612ce185828601612a80565b9250506020612cf285828601612a95565b9150509250929050565b60008060408385031215612d0f57600080fd5b6000612d1d85828601612a80565b9250506020612d2e85828601612b67565b9150509250929050565b600060208284031215612d4a57600080fd5b6000612d5884828501612aaa565b91505092915050565b600060208284031215612d7357600080fd5b6000612d8184828501612abf565b91505092915050565b600060208284031215612d9c57600080fd5b6000612daa84828501612ad4565b91505092915050565b600060208284031215612dc557600080fd5b6000612dd384828501612ae9565b91505092915050565b600060208284031215612dee57600080fd5b6000612dfc84828501612afe565b91505092915050565b600060208284031215612e1757600080fd5b6000612e2584828501612b67565b91505092915050565b600060208284031215612e4057600080fd5b6000612e4e84828501612b7c565b91505092915050565b60008060408385031215612e6a57600080fd5b6000612e7885828601612b67565b925050602083013567ffffffffffffffff811115612e9557600080fd5b612ea185828601612b3d565b9150509250929050565b612eb4816137ed565b82525050565b612ec3816137ff565b82525050565b612ed28161380b565b82525050565b6000612ee3826136ef565b612eed8185613705565b9350612efd81856020860161387a565b612f0681613a46565b840191505092915050565b6000612f1c826136fa565b612f268185613716565b9350612f3681856020860161387a565b612f3f81613a46565b840191505092915050565b6000612f55826136fa565b612f5f8185613727565b9350612f6f81856020860161387a565b80840191505092915050565b6000612f88603283613716565b9150612f9382613a57565b604082019050919050565b6000612fab602683613716565b9150612fb682613aa6565b604082019050919050565b6000612fce601c83613716565b9150612fd982613af5565b602082019050919050565b6000612ff1602483613716565b9150612ffc82613b1e565b604082019050919050565b6000613014601983613716565b915061301f82613b6d565b602082019050919050565b6000613037602c83613716565b915061304282613b96565b604082019050919050565b600061305a603883613716565b915061306582613be5565b604082019050919050565b600061307d602a83613716565b915061308882613c34565b604082019050919050565b60006130a0602983613716565b91506130ab82613c83565b604082019050919050565b60006130c3601c83613716565b91506130ce82613cd2565b602082019050919050565b60006130e6602083613716565b91506130f182613cfb565b602082019050919050565b6000613109602c83613716565b915061311482613d24565b604082019050919050565b600061312c602083613716565b915061313782613d73565b602082019050919050565b600061314f602983613716565b915061315a82613d9c565b604082019050919050565b6000613172602f83613716565b915061317d82613deb565b604082019050919050565b6000613195602183613716565b91506131a082613e3a565b604082019050919050565b60006131b8603183613716565b91506131c382613e89565b604082019050919050565b60006131db602583613716565b91506131e682613ed8565b604082019050919050565b6131fa81613861565b82525050565b600061320c8285612f4a565b91506132188284612f4a565b91508190509392505050565b60006020820190506132396000830184612eab565b92915050565b60006080820190506132546000830187612eab565b6132616020830186612eab565b61326e60408301856131f1565b81810360608301526132808184612ed8565b905095945050505050565b60006060820190506132a06000830186612eab565b81810360208301526132b28185612f11565b90506132c16040830184612ec9565b949350505050565b60006020820190506132de6000830184612eba565b92915050565b60006020820190506132f96000830184612ec9565b92915050565b600060c0820190506133146000830189612ec9565b81810360208301526133268188612f11565b9050818103604083015261333a8187612f11565b905061334960608301866131f1565b6133566080830185612eab565b81810360a08301526133688184612f11565b9050979650505050505050565b6000602082019050818103600083015261338f8184612f11565b905092915050565b600060208201905081810360008301526133b081612f7b565b9050919050565b600060208201905081810360008301526133d081612f9e565b9050919050565b600060208201905081810360008301526133f081612fc1565b9050919050565b6000602082019050818103600083015261341081612fe4565b9050919050565b6000602082019050818103600083015261343081613007565b9050919050565b600060208201905081810360008301526134508161302a565b9050919050565b600060208201905081810360008301526134708161304d565b9050919050565b6000602082019050818103600083015261349081613070565b9050919050565b600060208201905081810360008301526134b081613093565b9050919050565b600060208201905081810360008301526134d0816130b6565b9050919050565b600060208201905081810360008301526134f0816130d9565b9050919050565b60006020820190508181036000830152613510816130fc565b9050919050565b600060208201905081810360008301526135308161311f565b9050919050565b6000602082019050818103600083015261355081613142565b9050919050565b6000602082019050818103600083015261357081613165565b9050919050565b6000602082019050818103600083015261359081613188565b9050919050565b600060208201905081810360008301526135b0816131ab565b9050919050565b600060208201905081810360008301526135d0816131ce565b9050919050565b60006020820190506135ec60008301846131f1565b92915050565b600060c08201905061360760008301896131f1565b81810360208301526136198188612f11565b9050818103604083015261362d8187612f11565b905061363c60608301866131f1565b6136496080830185612eab565b81810360a083015261365b8184612f11565b9050979650505050505050565b6000613672613683565b905061367e82826138df565b919050565b6000604051905090565b600067ffffffffffffffff8211156136a8576136a7613a17565b5b6136b182613a46565b9050602081019050919050565b600067ffffffffffffffff8211156136d9576136d8613a17565b5b6136e282613a46565b9050602081019050919050565b600081519050919050565b600081519050919050565b600082825260208201905092915050565b600082825260208201905092915050565b600081905092915050565b600061373d82613861565b915061374883613861565b9250827fffffffffffffffffffffffffffffffffffffffffffffffffffffffffffffffff0382111561377d5761377c61398a565b5b828201905092915050565b600061379382613861565b915061379e83613861565b9250826137ae576137ad6139b9565b5b828204905092915050565b60006137c482613861565b91506137cf83613861565b9250828210156137e2576137e161398a565b5b828203905092915050565b60006137f882613841565b9050919050565b60008115159050919050565b6000819050919050565b60007fffffffff0000000000000000000000000000000000000000000000000000000082169050919050565b600073ffffffffffffffffffffffffffffffffffffffff82169050919050565b6000819050919050565b82818337600083830152505050565b60005b8381101561389857808201518184015260208101905061387d565b838111156138a7576000848401525b50505050565b600060028204905060018216806138c557607f821691505b602082108114156138d9576138d86139e8565b5b50919050565b6138e882613a46565b810181811067ffffffffffffffff8211171561390757613906613a17565b5b80604052505050565b600061391b82613861565b91507fffffffffffffffffffffffffffffffffffffffffffffffffffffffffffffffff82141561394e5761394d61398a565b5b600182019050919050565b600061396482613861565b915061396f83613861565b92508261397f5761397e6139b9565b5b828206905092915050565b7f4e487b7100000000000000000000000000000000000000000000000000000000600052601160045260246000fd5b7f4e487b7100000000000000000000000000000000000000000000000000000000600052601260045260246000fd5b7f4e487b7100000000000000000000000000000000000000000000000000000000600052602260045260246000fd5b7f4e487b7100000000000000000000000000000000000000000000000000000000600052604160045260246000fd5b6000601f19601f8301169050919050565b7f4552433732313a207472616e7366657220746f206e6f6e20455243373231526560008201527f63656976657220696d706c656d656e7465720000000000000000000000000000602082015250565b7f4f776e61626c653a206e6577206f776e657220697320746865207a65726f206160008201527f6464726573730000000000000000000000000000000000000000000000000000602082015250565b7f4552433732313a20746f6b656e20616c7265616479206d696e74656400000000600082015250565b7f4552433732313a207472616e7366657220746f20746865207a65726f2061646460008201527f7265737300000000000000000000000000000000000000000000000000000000602082015250565b7f4552433732313a20617070726f766520746f2063616c6c657200000000000000600082015250565b7f4552433732313a206f70657261746f7220717565727920666f72206e6f6e657860008201527f697374656e7420746f6b656e0000000000000000000000000000000000000000602082015250565b7f4552433732313a20617070726f76652063616c6c6572206973206e6f74206f7760008201527f6e6572206e6f7220617070726f76656420666f7220616c6c0000000000000000602082015250565b7f4552433732313a2062616c616e636520717565727920666f7220746865207a6560008201527f726f206164647265737300000000000000000000000000000000000000000000602082015250565b7f4552433732313a206f776e657220717565727920666f72206e6f6e657869737460008201527f656e7420746f6b656e0000000000000000000000000000000000000000000000602082015250565b7f546865726520617265206e6f20626c696e6420626f7820636174732100000000600082015250565b7f4552433732313a206d696e7420746f20746865207a65726f2061646472657373600082015250565b7f4552433732313a20617070726f76656420717565727920666f72206e6f6e657860008201527f697374656e7420746f6b656e0000000000000000000000000000000000000000602082015250565b7f4f776e61626c653a2063616c6c6572206973206e6f7420746865206f776e6572600082015250565b7f4552433732313a207472616e73666572206f6620746f6b656e2074686174206960008201527f73206e6f74206f776e0000000000000000000000000000000000000000000000602082015250565b7f4552433732314d657461646174613a2055524920717565727920666f72206e6f60008201527f6e6578697374656e7420746f6b656e0000000000000000000000000000000000602082015250565b7f4552433732313a20617070726f76616c20746f2063757272656e74206f776e6560008201527f7200000000000000000000000000000000000000000000000000000000000000602082015250565b7f4552433732313a207472616e736665722063616c6c6572206973206e6f74206f60008201527f776e6572206e6f7220617070726f766564000000000000000000000000000000602082015250565b7f206f7261636c6520717565727920686173206e6f74206265656e2066756c666960008201527f6c6c656421000000000000000000000000000000000000000000000000000000602082015250565b613f30816137ed565b8114613f3b57600080fd5b50565b613f47816137ff565b8114613f5257600080fd5b50565b613f5e8161380b565b8114613f6957600080fd5b50565b613f7581613815565b8114613f8057600080fd5b50565b613f8c81613861565b8114613f9757600080fd5b5056fea2646970667358221220e3d21500ca5e17b9745ea5f567631f9043e62f3377bfdc64ead02cc2842de00a64736f6c6343000803003368747470733a2f2f706963342e7a68696d672e636f6d2f38302f76322d37613466383064373734353139623163663462653462636664353634313432375f31343430772e6a706768747470733a2f2f706963312e7a68696d672e636f6d2f38302f76322d32356538626230333231623738646139353939306263646564623639326330635f31343430772e6a706768747470733a2f2f706963312e7a68696d672e636f6d2f38302f76322d66386430313233393761323638373264663435363239316165313737326235385f31343430772e6a706768747470733a2f2f706963322e7a68696d672e636f6d2f38302f76322d36383338643336363534383736393234643735653863633131353435333939645f31343430772e6a706768747470733a2f2f706963312e7a68696d672e636f6d2f38302f76322d63653361323666663666393663323232613965653933643831373933323864635f31343430772e6a706768747470733a2f2f706963312e7a68696d672e636f6d2f76322d38326336633965613331326562356565623933643766353363386533323539615f31343430772e6a706768747470733a2f2f706963312e7a68696d672e636f6d2f38302f76322d33336635396134333433616262366134396233353237383933373766663564385f31343430772e6a7067",
  "linkReferences": {},
  "deployedLinkReferences": {}
}